{
  "_format": "hh-sol-artifact-1",
  "contractName": "FreakTeam",
  "sourceName": "contracts/FreakTeam.sol",
  "abi": [
    {
      "inputs": [
        {
          "internalType": "address",
          "name": "hr",
          "type": "address"
        },
        {
          "internalType": "address",
          "name": "financial",
          "type": "address"
        }
      ],
      "stateMutability": "nonpayable",
      "type": "constructor"
    },
    {
      "anonymous": false,
      "inputs": [
        {
          "indexed": true,
          "internalType": "address",
          "name": "account",
          "type": "address"
        },
        {
          "indexed": true,
          "internalType": "address",
          "name": "operator",
          "type": "address"
        },
        {
          "indexed": false,
          "internalType": "bool",
          "name": "approved",
          "type": "bool"
        }
      ],
      "name": "ApprovalForAll",
      "type": "event"
    },
    {
      "anonymous": false,
      "inputs": [
        {
          "indexed": true,
          "internalType": "bytes32",
          "name": "role",
          "type": "bytes32"
        },
        {
          "indexed": true,
          "internalType": "bytes32",
          "name": "previousAdminRole",
          "type": "bytes32"
        },
        {
          "indexed": true,
          "internalType": "bytes32",
          "name": "newAdminRole",
          "type": "bytes32"
        }
      ],
      "name": "RoleAdminChanged",
      "type": "event"
    },
    {
      "anonymous": false,
      "inputs": [
        {
          "indexed": true,
          "internalType": "bytes32",
          "name": "role",
          "type": "bytes32"
        },
        {
          "indexed": true,
          "internalType": "address",
          "name": "account",
          "type": "address"
        },
        {
          "indexed": true,
          "internalType": "address",
          "name": "sender",
          "type": "address"
        }
      ],
      "name": "RoleGranted",
      "type": "event"
    },
    {
      "anonymous": false,
      "inputs": [
        {
          "indexed": true,
          "internalType": "bytes32",
          "name": "role",
          "type": "bytes32"
        },
        {
          "indexed": true,
          "internalType": "address",
          "name": "account",
          "type": "address"
        },
        {
          "indexed": true,
          "internalType": "address",
          "name": "sender",
          "type": "address"
        }
      ],
      "name": "RoleRevoked",
      "type": "event"
    },
    {
      "anonymous": false,
      "inputs": [
        {
          "indexed": true,
          "internalType": "address",
          "name": "operator",
          "type": "address"
        },
        {
          "indexed": true,
          "internalType": "address",
          "name": "from",
          "type": "address"
        },
        {
          "indexed": true,
          "internalType": "address",
          "name": "to",
          "type": "address"
        },
        {
          "indexed": false,
          "internalType": "uint256[]",
          "name": "ids",
          "type": "uint256[]"
        },
        {
          "indexed": false,
          "internalType": "uint256[]",
          "name": "values",
          "type": "uint256[]"
        }
      ],
      "name": "TransferBatch",
      "type": "event"
    },
    {
      "anonymous": false,
      "inputs": [
        {
          "indexed": true,
          "internalType": "address",
          "name": "operator",
          "type": "address"
        },
        {
          "indexed": true,
          "internalType": "address",
          "name": "from",
          "type": "address"
        },
        {
          "indexed": true,
          "internalType": "address",
          "name": "to",
          "type": "address"
        },
        {
          "indexed": false,
          "internalType": "uint256",
          "name": "id",
          "type": "uint256"
        },
        {
          "indexed": false,
          "internalType": "uint256",
          "name": "value",
          "type": "uint256"
        }
      ],
      "name": "TransferSingle",
      "type": "event"
    },
    {
      "anonymous": false,
      "inputs": [
        {
          "indexed": false,
          "internalType": "string",
          "name": "value",
          "type": "string"
        },
        {
          "indexed": true,
          "internalType": "uint256",
          "name": "id",
          "type": "uint256"
        }
      ],
      "name": "URI",
      "type": "event"
    },
    {
      "anonymous": false,
      "inputs": [
        {
          "indexed": false,
          "internalType": "string",
          "name": "_name",
          "type": "string"
        },
        {
          "indexed": false,
          "internalType": "uint256",
          "name": "startDate",
          "type": "uint256"
        },
        {
          "indexed": false,
          "internalType": "uint256",
          "name": "employeeNumber",
          "type": "uint256"
        },
        {
          "indexed": false,
          "internalType": "enum Role",
          "name": "role",
          "type": "uint8"
        },
        {
          "indexed": false,
          "internalType": "enum Skill",
          "name": "skill",
          "type": "uint8"
        }
      ],
      "name": "addedFreak",
      "type": "event"
    },
    {
      "inputs": [],
      "name": "DEFAULT_ADMIN_ROLE",
      "outputs": [
        {
          "internalType": "bytes32",
          "name": "",
          "type": "bytes32"
        }
      ],
      "stateMutability": "view",
      "type": "function"
    },
    {
      "inputs": [],
      "name": "FINANCIAL_ROLE",
      "outputs": [
        {
          "internalType": "bytes32",
          "name": "",
          "type": "bytes32"
        }
      ],
      "stateMutability": "view",
      "type": "function"
    },
    {
      "inputs": [],
      "name": "FREAK_ROLE",
      "outputs": [
        {
          "internalType": "bytes32",
          "name": "",
          "type": "bytes32"
        }
      ],
      "stateMutability": "view",
      "type": "function"
    },
    {
      "inputs": [],
      "name": "HR_ROLE",
      "outputs": [
        {
          "internalType": "bytes32",
          "name": "",
          "type": "bytes32"
        }
      ],
      "stateMutability": "view",
      "type": "function"
    },
    {
      "inputs": [
        {
          "internalType": "address",
          "name": "_address",
          "type": "address"
        },
        {
          "internalType": "string",
          "name": "_name",
          "type": "string"
        },
        {
          "internalType": "uint256",
          "name": "_startDate",
          "type": "uint256"
        },
        {
          "internalType": "uint256",
          "name": "_employeeNumber",
          "type": "uint256"
        },
        {
          "internalType": "enum Role",
          "name": "_role",
          "type": "uint8"
        },
        {
          "internalType": "enum Skill",
          "name": "_skill",
          "type": "uint8"
        }
      ],
      "name": "addNewFreak",
      "outputs": [],
      "stateMutability": "nonpayable",
      "type": "function"
    },
    {
      "inputs": [
        {
          "internalType": "address",
          "name": "account",
          "type": "address"
        },
        {
          "internalType": "uint256",
          "name": "id",
          "type": "uint256"
        }
      ],
      "name": "balanceOf",
      "outputs": [
        {
          "internalType": "uint256",
          "name": "",
          "type": "uint256"
        }
      ],
      "stateMutability": "view",
      "type": "function"
    },
    {
      "inputs": [
        {
          "internalType": "address[]",
          "name": "accounts",
          "type": "address[]"
        },
        {
          "internalType": "uint256[]",
          "name": "ids",
          "type": "uint256[]"
        }
      ],
      "name": "balanceOfBatch",
      "outputs": [
        {
          "internalType": "uint256[]",
          "name": "",
          "type": "uint256[]"
        }
      ],
      "stateMutability": "view",
      "type": "function"
    },
    {
      "inputs": [
        {
          "internalType": "uint256",
          "name": "",
          "type": "uint256"
        }
      ],
      "name": "freakAccts",
      "outputs": [
        {
          "internalType": "address",
          "name": "",
          "type": "address"
        }
      ],
      "stateMutability": "view",
      "type": "function"
    },
    {
      "inputs": [
        {
          "internalType": "address",
          "name": "",
          "type": "address"
        }
      ],
      "name": "freaks",
      "outputs": [
        {
          "internalType": "string",
          "name": "name",
          "type": "string"
        },
        {
          "internalType": "uint256",
          "name": "startDate",
          "type": "uint256"
        },
        {
          "internalType": "uint256",
          "name": "employeeNumber",
          "type": "uint256"
        },
        {
          "internalType": "enum Role",
          "name": "choiceRole",
          "type": "uint8"
        },
        {
          "internalType": "enum Skill",
          "name": "choiceSkill",
          "type": "uint8"
        }
      ],
      "stateMutability": "view",
      "type": "function"
    },
    {
      "inputs": [
        {
          "internalType": "bytes32",
          "name": "role",
          "type": "bytes32"
        }
      ],
      "name": "getRoleAdmin",
      "outputs": [
        {
          "internalType": "bytes32",
          "name": "",
          "type": "bytes32"
        }
      ],
      "stateMutability": "view",
      "type": "function"
    },
    {
      "inputs": [
        {
          "internalType": "bytes32",
          "name": "role",
          "type": "bytes32"
        },
        {
          "internalType": "address",
          "name": "account",
          "type": "address"
        }
      ],
      "name": "grantRole",
      "outputs": [],
      "stateMutability": "nonpayable",
      "type": "function"
    },
    {
      "inputs": [
        {
          "internalType": "bytes32",
          "name": "role",
          "type": "bytes32"
        },
        {
          "internalType": "address",
          "name": "account",
          "type": "address"
        }
      ],
      "name": "hasRole",
      "outputs": [
        {
          "internalType": "bool",
          "name": "",
          "type": "bool"
        }
      ],
      "stateMutability": "view",
      "type": "function"
    },
    {
      "inputs": [
        {
          "internalType": "address",
          "name": "account",
          "type": "address"
        },
        {
          "internalType": "address",
          "name": "operator",
          "type": "address"
        }
      ],
      "name": "isApprovedForAll",
      "outputs": [
        {
          "internalType": "bool",
          "name": "",
          "type": "bool"
        }
      ],
      "stateMutability": "view",
      "type": "function"
    },
    {
      "inputs": [
        {
          "internalType": "bytes32",
          "name": "role",
          "type": "bytes32"
        },
        {
          "internalType": "address",
          "name": "account",
          "type": "address"
        }
      ],
      "name": "renounceRole",
      "outputs": [],
      "stateMutability": "nonpayable",
      "type": "function"
    },
    {
      "inputs": [
        {
          "internalType": "bytes32",
          "name": "role",
          "type": "bytes32"
        },
        {
          "internalType": "address",
          "name": "account",
          "type": "address"
        }
      ],
      "name": "revokeRole",
      "outputs": [],
      "stateMutability": "nonpayable",
      "type": "function"
    },
    {
      "inputs": [
        {
          "internalType": "address",
          "name": "from",
          "type": "address"
        },
        {
          "internalType": "address",
          "name": "to",
          "type": "address"
        },
        {
          "internalType": "uint256[]",
          "name": "ids",
          "type": "uint256[]"
        },
        {
          "internalType": "uint256[]",
          "name": "amounts",
          "type": "uint256[]"
        },
        {
          "internalType": "bytes",
          "name": "data",
          "type": "bytes"
        }
      ],
      "name": "safeBatchTransferFrom",
      "outputs": [],
      "stateMutability": "nonpayable",
      "type": "function"
    },
    {
      "inputs": [
        {
          "internalType": "address",
          "name": "from",
          "type": "address"
        },
        {
          "internalType": "address",
          "name": "to",
          "type": "address"
        },
        {
          "internalType": "uint256",
          "name": "id",
          "type": "uint256"
        },
        {
          "internalType": "uint256",
          "name": "amount",
          "type": "uint256"
        },
        {
          "internalType": "bytes",
          "name": "data",
          "type": "bytes"
        }
      ],
      "name": "safeTransferFrom",
      "outputs": [],
      "stateMutability": "nonpayable",
      "type": "function"
    },
    {
      "inputs": [
        {
          "internalType": "address",
          "name": "operator",
          "type": "address"
        },
        {
          "internalType": "bool",
          "name": "approved",
          "type": "bool"
        }
      ],
      "name": "setApprovalForAll",
      "outputs": [],
      "stateMutability": "nonpayable",
      "type": "function"
    },
    {
      "inputs": [
        {
          "internalType": "bytes4",
          "name": "interfaceId",
          "type": "bytes4"
        }
      ],
      "name": "supportsInterface",
      "outputs": [
        {
          "internalType": "bool",
          "name": "",
          "type": "bool"
        }
      ],
      "stateMutability": "view",
      "type": "function"
    },
    {
      "inputs": [
        {
          "internalType": "uint256",
          "name": "",
          "type": "uint256"
        }
      ],
      "name": "uri",
      "outputs": [
        {
          "internalType": "string",
          "name": "",
          "type": "string"
        }
      ],
      "stateMutability": "view",
      "type": "function"
    }
  ],
  "bytecode": "0x60806040523480156200001157600080fd5b5060405162003bda38038062003bda833981810160405281019062000037919062000338565b604051806020016040528060008152506200005881620000da60201b60201c565b506200006e6000801b33620000f660201b60201c565b620000a07ffd70517941c75212b0f9013e45c47a37d6d983c5304288c7af285f2ea40cbba783620000f660201b60201c565b620000d27f4714c98f64aa1dda8d8aaec6cbc38c2e3cbb0aeca4ed11e04b3fd94f2ee2cf4b82620000f660201b60201c565b50506200042c565b8060029080519060200190620000f292919062000271565b5050565b6200010882826200010c60201b60201c565b5050565b6200011e8282620001fe60201b60201c565b620001fa5760016003600084815260200190815260200160002060000160008373ffffffffffffffffffffffffffffffffffffffff1673ffffffffffffffffffffffffffffffffffffffff16815260200190815260200160002060006101000a81548160ff0219169083151502179055506200019f6200026960201b60201c565b73ffffffffffffffffffffffffffffffffffffffff168173ffffffffffffffffffffffffffffffffffffffff16837f2f8788117e7eff1d82e926ec794901d17c78024a50270940304540a733656f0d60405160405180910390a45b5050565b60006003600084815260200190815260200160002060000160008373ffffffffffffffffffffffffffffffffffffffff1673ffffffffffffffffffffffffffffffffffffffff16815260200190815260200160002060009054906101000a900460ff16905092915050565b600033905090565b8280546200027f90620003ad565b90600052602060002090601f016020900481019282620002a35760008555620002ef565b82601f10620002be57805160ff1916838001178555620002ef565b82800160010185558215620002ef579182015b82811115620002ee578251825591602001919060010190620002d1565b5b509050620002fe919062000302565b5090565b5b808211156200031d57600081600090555060010162000303565b5090565b600081519050620003328162000412565b92915050565b600080604083850312156200034c57600080fd5b60006200035c8582860162000321565b92505060206200036f8582860162000321565b9150509250929050565b600062000386826200038d565b9050919050565b600073ffffffffffffffffffffffffffffffffffffffff82169050919050565b60006002820490506001821680620003c657607f821691505b60208210811415620003dd57620003dc620003e3565b5b50919050565b7f4e487b7100000000000000000000000000000000000000000000000000000000600052602260045260246000fd5b6200041d8162000379565b81146200042957600080fd5b50565b61379e806200043c6000396000f3fe608060405234801561001057600080fd5b506004361061012b5760003560e01c8063a217fddf116100ad578063ca80611611610071578063ca8061161461037c578063d547741f1461039a578063e985e9c5146103b6578063f242432a146103e6578063f3c6a198146104025761012b565b8063a217fddf146102d8578063a22cb465146102f6578063ae7eb96614610312578063bd678ba51461032e578063c2a78ea31461034c5761012b565b80632eb2c2d6116100f45780632eb2c2d6146102245780632f2ff15d1461024057806336568abe1461025c5780634e1273f41461027857806391d14854146102a85761012b565b8062fdd58e1461013057806301ffc9a7146101605780630e89341c146101905780631f0beb7e146101c0578063248a9ca3146101f4575b600080fd5b61014a60048036038101906101459190612476565b610420565b6040516101579190612d0c565b60405180910390f35b61017a60048036038101906101759190612583565b6104e9565b6040516101879190612ada565b60405180910390f35b6101aa60048036038101906101a591906125d5565b6104fb565b6040516101b79190612b10565b60405180910390f35b6101da60048036038101906101d591906121e6565b61058f565b6040516101eb959493929190612b32565b60405180910390f35b61020e6004803603810190610209919061251e565b610667565b60405161021b9190612af5565b60405180910390f35b61023e6004803603810190610239919061224b565b610687565b005b61025a60048036038101906102559190612547565b610728565b005b61027660048036038101906102719190612547565b610751565b005b610292600480360381019061028d91906124b2565b6107d4565b60405161029f9190612a81565b60405180910390f35b6102c260048036038101906102bd9190612547565b610985565b6040516102cf9190612ada565b60405180910390f35b6102e06109f0565b6040516102ed9190612af5565b60405180910390f35b610310600480360381019061030b9190612399565b6109f7565b005b61032c600480360381019061032791906123d5565b610b78565b005b610336610b80565b6040516103439190612af5565b60405180910390f35b610366600480360381019061036191906125d5565b610ba4565b60405161037391906129a4565b60405180910390f35b610384610be3565b6040516103919190612af5565b60405180910390f35b6103b460048036038101906103af9190612547565b610c07565b005b6103d060048036038101906103cb919061220f565b610c30565b6040516103dd9190612ada565b60405180910390f35b61040060048036038101906103fb919061230a565b610cc4565b005b61040a610d65565b6040516104179190612af5565b60405180910390f35b60008073ffffffffffffffffffffffffffffffffffffffff168373ffffffffffffffffffffffffffffffffffffffff161415610491576040517f08c379a000000000000000000000000000000000000000000000000000000000815260040161048890612bec565b60405180910390fd5b60008083815260200190815260200160002060008473ffffffffffffffffffffffffffffffffffffffff1673ffffffffffffffffffffffffffffffffffffffff16815260200190815260200160002054905092915050565b60006104f482610d89565b9050919050565b60606002805461050a9061308f565b80601f01602080910402602001604051908101604052809291908181526020018280546105369061308f565b80156105835780601f1061055857610100808354040283529160200191610583565b820191906000526020600020905b81548152906001019060200180831161056657829003601f168201915b50505050509050919050565b60046020528060005260406000206000915090508060000180546105b29061308f565b80601f01602080910402602001604051908101604052809291908181526020018280546105de9061308f565b801561062b5780601f106106005761010080835404028352916020019161062b565b820191906000526020600020905b81548152906001019060200180831161060e57829003601f168201915b5050505050908060010154908060020154908060030160009054906101000a900460ff16908060030160019054906101000a900460ff16905085565b600060036000838152602001908152602001600020600101549050919050565b61068f610e03565b73ffffffffffffffffffffffffffffffffffffffff168573ffffffffffffffffffffffffffffffffffffffff1614806106d557506106d4856106cf610e03565b610c30565b5b610714576040517f08c379a000000000000000000000000000000000000000000000000000000000815260040161070b90612c4c565b60405180910390fd5b6107218585858585610e0b565b5050505050565b61073182610667565b6107428161073d610e03565b61116b565b61074c8383611208565b505050565b610759610e03565b73ffffffffffffffffffffffffffffffffffffffff168173ffffffffffffffffffffffffffffffffffffffff16146107c6576040517f08c379a00000000000000000000000000000000000000000000000000000000081526004016107bd90612cec565b60405180910390fd5b6107d082826112e9565b5050565b6060815183511461081a576040517f08c379a000000000000000000000000000000000000000000000000000000000815260040161081190612cac565b60405180910390fd5b6000835167ffffffffffffffff81111561085d577f4e487b7100000000000000000000000000000000000000000000000000000000600052604160045260246000fd5b60405190808252806020026020018201604052801561088b5781602001602082028036833780820191505090505b50905060005b845181101561097a576109248582815181106108d6577f4e487b7100000000000000000000000000000000000000000000000000000000600052603260045260246000fd5b6020026020010151858381518110610917577f4e487b7100000000000000000000000000000000000000000000000000000000600052603260045260246000fd5b6020026020010151610420565b82828151811061095d577f4e487b7100000000000000000000000000000000000000000000000000000000600052603260045260246000fd5b60200260200101818152505080610973906130f2565b9050610891565b508091505092915050565b60006003600084815260200190815260200160002060000160008373ffffffffffffffffffffffffffffffffffffffff1673ffffffffffffffffffffffffffffffffffffffff16815260200190815260200160002060009054906101000a900460ff16905092915050565b6000801b81565b8173ffffffffffffffffffffffffffffffffffffffff16610a16610e03565b73ffffffffffffffffffffffffffffffffffffffff161415610a6d576040517f08c379a0000000000000000000000000000000000000000000000000000000008152600401610a6490612c8c565b60405180910390fd5b8060016000610a7a610e03565b73ffffffffffffffffffffffffffffffffffffffff1673ffffffffffffffffffffffffffffffffffffffff16815260200190815260200160002060008473ffffffffffffffffffffffffffffffffffffffff1673ffffffffffffffffffffffffffffffffffffffff16815260200190815260200160002060006101000a81548160ff0219169083151502179055508173ffffffffffffffffffffffffffffffffffffffff16610b27610e03565b73ffffffffffffffffffffffffffffffffffffffff167f17307eab39ab6107e8899845ad3d59bd9653f200f220920489ca2b5937696c3183604051610b6c9190612ada565b60405180910390a35050565b505050505050565b7f6b5fef62e5bc2370ac8da5f60f559eeb948e92965cc957d5211411a64d62e77781565b60058181548110610bb457600080fd5b906000526020600020016000915054906101000a900473ffffffffffffffffffffffffffffffffffffffff1681565b7f4714c98f64aa1dda8d8aaec6cbc38c2e3cbb0aeca4ed11e04b3fd94f2ee2cf4b81565b610c1082610667565b610c2181610c1c610e03565b61116b565b610c2b83836112e9565b505050565b6000600160008473ffffffffffffffffffffffffffffffffffffffff1673ffffffffffffffffffffffffffffffffffffffff16815260200190815260200160002060008373ffffffffffffffffffffffffffffffffffffffff1673ffffffffffffffffffffffffffffffffffffffff16815260200190815260200160002060009054906101000a900460ff16905092915050565b610ccc610e03565b73ffffffffffffffffffffffffffffffffffffffff168573ffffffffffffffffffffffffffffffffffffffff161480610d125750610d1185610d0c610e03565b610c30565b5b610d51576040517f08c379a0000000000000000000000000000000000000000000000000000000008152600401610d4890612c0c565b60405180910390fd5b610d5e85858585856113cb565b5050505050565b7ffd70517941c75212b0f9013e45c47a37d6d983c5304288c7af285f2ea40cbba781565b60007f7965db0b000000000000000000000000000000000000000000000000000000007bffffffffffffffffffffffffffffffffffffffffffffffffffffffff1916827bffffffffffffffffffffffffffffffffffffffffffffffffffffffff19161480610dfc5750610dfb8261164d565b5b9050919050565b600033905090565b8151835114610e4f576040517f08c379a0000000000000000000000000000000000000000000000000000000008152600401610e4690612ccc565b60405180910390fd5b600073ffffffffffffffffffffffffffffffffffffffff168473ffffffffffffffffffffffffffffffffffffffff161415610ebf576040517f08c379a0000000000000000000000000000000000000000000000000000000008152600401610eb690612c2c565b60405180910390fd5b6000610ec9610e03565b9050610ed981878787878761172f565b60005b84518110156110d6576000858281518110610f20577f4e487b7100000000000000000000000000000000000000000000000000000000600052603260045260246000fd5b602002602001015190506000858381518110610f65577f4e487b7100000000000000000000000000000000000000000000000000000000600052603260045260246000fd5b60200260200101519050600080600084815260200190815260200160002060008b73ffffffffffffffffffffffffffffffffffffffff1673ffffffffffffffffffffffffffffffffffffffff16815260200190815260200160002054905081811015611006576040517f08c379a0000000000000000000000000000000000000000000000000000000008152600401610ffd90612c6c565b60405180910390fd5b81810360008085815260200190815260200160002060008c73ffffffffffffffffffffffffffffffffffffffff1673ffffffffffffffffffffffffffffffffffffffff168152602001908152602001600020819055508160008085815260200190815260200160002060008b73ffffffffffffffffffffffffffffffffffffffff1673ffffffffffffffffffffffffffffffffffffffff16815260200190815260200160002060008282546110bb9190612eab565b92505081905550505050806110cf906130f2565b9050610edc565b508473ffffffffffffffffffffffffffffffffffffffff168673ffffffffffffffffffffffffffffffffffffffff168273ffffffffffffffffffffffffffffffffffffffff167f4a39dc06d4c0dbc64b70af90fd698a233a518aa5d07e595d983b8c0526c8f7fb878760405161114d929190612aa3565b60405180910390a4611163818787878787611737565b505050505050565b6111758282610985565b6112045761119a8173ffffffffffffffffffffffffffffffffffffffff16601461191e565b6111a88360001c602061191e565b6040516020016111b992919061296a565b6040516020818303038152906040526040517f08c379a00000000000000000000000000000000000000000000000000000000081526004016111fb9190612b10565b60405180910390fd5b5050565b6112128282610985565b6112e55760016003600084815260200190815260200160002060000160008373ffffffffffffffffffffffffffffffffffffffff1673ffffffffffffffffffffffffffffffffffffffff16815260200190815260200160002060006101000a81548160ff02191690831515021790555061128a610e03565b73ffffffffffffffffffffffffffffffffffffffff168173ffffffffffffffffffffffffffffffffffffffff16837f2f8788117e7eff1d82e926ec794901d17c78024a50270940304540a733656f0d60405160405180910390a45b5050565b6112f38282610985565b156113c75760006003600084815260200190815260200160002060000160008373ffffffffffffffffffffffffffffffffffffffff1673ffffffffffffffffffffffffffffffffffffffff16815260200190815260200160002060006101000a81548160ff02191690831515021790555061136c610e03565b73ffffffffffffffffffffffffffffffffffffffff168173ffffffffffffffffffffffffffffffffffffffff16837ff6391f5c32d9c69d2a47ea670b442974b53935d1edc7fd64eb21e047a839171b60405160405180910390a45b5050565b600073ffffffffffffffffffffffffffffffffffffffff168473ffffffffffffffffffffffffffffffffffffffff16141561143b576040517f08c379a000000000000000000000000000000000000000000000000000000000815260040161143290612c2c565b60405180910390fd5b6000611445610e03565b905061146581878761145688611c18565b61145f88611c18565b8761172f565b600080600086815260200190815260200160002060008873ffffffffffffffffffffffffffffffffffffffff1673ffffffffffffffffffffffffffffffffffffffff168152602001908152602001600020549050838110156114fc576040517f08c379a00000000000000000000000000000000000000000000000000000000081526004016114f390612c6c565b60405180910390fd5b83810360008087815260200190815260200160002060008973ffffffffffffffffffffffffffffffffffffffff1673ffffffffffffffffffffffffffffffffffffffff168152602001908152602001600020819055508360008087815260200190815260200160002060008873ffffffffffffffffffffffffffffffffffffffff1673ffffffffffffffffffffffffffffffffffffffff16815260200190815260200160002060008282546115b19190612eab565b925050819055508573ffffffffffffffffffffffffffffffffffffffff168773ffffffffffffffffffffffffffffffffffffffff168373ffffffffffffffffffffffffffffffffffffffff167fc3d58168c5ae7397731d063d5bbf3d657854427343f4c083240f7aacaa2d0f62888860405161162e929190612d27565b60405180910390a4611644828888888888611cde565b50505050505050565b60007fd9b67a26000000000000000000000000000000000000000000000000000000007bffffffffffffffffffffffffffffffffffffffffffffffffffffffff1916827bffffffffffffffffffffffffffffffffffffffffffffffffffffffff1916148061171857507f0e89341c000000000000000000000000000000000000000000000000000000007bffffffffffffffffffffffffffffffffffffffffffffffffffffffff1916827bffffffffffffffffffffffffffffffffffffffffffffffffffffffff1916145b80611728575061172782611ec5565b5b9050919050565b505050505050565b6117568473ffffffffffffffffffffffffffffffffffffffff16611f2f565b15611916578373ffffffffffffffffffffffffffffffffffffffff1663bc197c8187878686866040518663ffffffff1660e01b815260040161179c9594939291906129bf565b602060405180830381600087803b1580156117b657600080fd5b505af19250505080156117e757506040513d601f19601f820116820180604052508101906117e491906125ac565b60015b61188d576117f36131f7565b806308c379a014156118505750611808613617565b806118135750611852565b806040517f08c379a00000000000000000000000000000000000000000000000000000000081526004016118479190612b10565b60405180910390fd5b505b6040517f08c379a000000000000000000000000000000000000000000000000000000000815260040161188490612b8c565b60405180910390fd5b63bc197c8160e01b7bffffffffffffffffffffffffffffffffffffffffffffffffffffffff1916817bffffffffffffffffffffffffffffffffffffffffffffffffffffffff191614611914576040517f08c379a000000000000000000000000000000000000000000000000000000000815260040161190b90612bcc565b60405180910390fd5b505b505050505050565b6060600060028360026119319190612f01565b61193b9190612eab565b67ffffffffffffffff81111561197a577f4e487b7100000000000000000000000000000000000000000000000000000000600052604160045260246000fd5b6040519080825280601f01601f1916602001820160405280156119ac5781602001600182028036833780820191505090505b5090507f300000000000000000000000000000000000000000000000000000000000000081600081518110611a0a577f4e487b7100000000000000000000000000000000000000000000000000000000600052603260045260246000fd5b60200101907effffffffffffffffffffffffffffffffffffffffffffffffffffffffffffff1916908160001a9053507f780000000000000000000000000000000000000000000000000000000000000081600181518110611a94577f4e487b7100000000000000000000000000000000000000000000000000000000600052603260045260246000fd5b60200101907effffffffffffffffffffffffffffffffffffffffffffffffffffffffffffff1916908160001a90535060006001846002611ad49190612f01565b611ade9190612eab565b90505b6001811115611bca577f3031323334353637383961626364656600000000000000000000000000000000600f861660108110611b46577f4e487b7100000000000000000000000000000000000000000000000000000000600052603260045260246000fd5b1a60f81b828281518110611b83577f4e487b7100000000000000000000000000000000000000000000000000000000600052603260045260246000fd5b60200101907effffffffffffffffffffffffffffffffffffffffffffffffffffffffffffff1916908160001a905350600485901c945080611bc390613065565b9050611ae1565b5060008414611c0e576040517f08c379a0000000000000000000000000000000000000000000000000000000008152600401611c0590612bac565b60405180910390fd5b8091505092915050565b60606000600167ffffffffffffffff811115611c5d577f4e487b7100000000000000000000000000000000000000000000000000000000600052604160045260246000fd5b604051908082528060200260200182016040528015611c8b5781602001602082028036833780820191505090505b5090508281600081518110611cc9577f4e487b7100000000000000000000000000000000000000000000000000000000600052603260045260246000fd5b60200260200101818152505080915050919050565b611cfd8473ffffffffffffffffffffffffffffffffffffffff16611f2f565b15611ebd578373ffffffffffffffffffffffffffffffffffffffff1663f23a6e6187878686866040518663ffffffff1660e01b8152600401611d43959493929190612a27565b602060405180830381600087803b158015611d5d57600080fd5b505af1925050508015611d8e57506040513d601f19601f82011682018060405250810190611d8b91906125ac565b60015b611e3457611d9a6131f7565b806308c379a01415611df75750611daf613617565b80611dba5750611df9565b806040517f08c379a0000000000000000000000000000000000000000000000000000000008152600401611dee9190612b10565b60405180910390fd5b505b6040517f08c379a0000000000000000000000000000000000000000000000000000000008152600401611e2b90612b8c565b60405180910390fd5b63f23a6e6160e01b7bffffffffffffffffffffffffffffffffffffffffffffffffffffffff1916817bffffffffffffffffffffffffffffffffffffffffffffffffffffffff191614611ebb576040517f08c379a0000000000000000000000000000000000000000000000000000000008152600401611eb290612bcc565b60405180910390fd5b505b505050505050565b60007f01ffc9a7000000000000000000000000000000000000000000000000000000007bffffffffffffffffffffffffffffffffffffffffffffffffffffffff1916827bffffffffffffffffffffffffffffffffffffffffffffffffffffffff1916149050919050565b600080823b905060008111915050919050565b6000611f55611f5084612d75565b612d50565b90508083825260208201905082856020860282011115611f7457600080fd5b60005b85811015611fa45781611f8a8882612096565b845260208401935060208301925050600181019050611f77565b5050509392505050565b6000611fc1611fbc84612da1565b612d50565b90508083825260208201905082856020860282011115611fe057600080fd5b60005b858110156120105781611ff688826121d1565b845260208401935060208301925050600181019050611fe3565b5050509392505050565b600061202d61202884612dcd565b612d50565b90508281526020810184848401111561204557600080fd5b612050848285613023565b509392505050565b600061206b61206684612dfe565b612d50565b90508281526020810184848401111561208357600080fd5b61208e848285613023565b509392505050565b6000813590506120a5816136d5565b92915050565b600082601f8301126120bc57600080fd5b81356120cc848260208601611f42565b91505092915050565b600082601f8301126120e657600080fd5b81356120f6848260208601611fae565b91505092915050565b60008135905061210e816136ec565b92915050565b60008135905061212381613703565b92915050565b6000813590506121388161371a565b92915050565b60008151905061214d8161371a565b92915050565b600082601f83011261216457600080fd5b813561217484826020860161201a565b91505092915050565b60008135905061218c81613731565b92915050565b6000813590506121a181613741565b92915050565b600082601f8301126121b857600080fd5b81356121c8848260208601612058565b91505092915050565b6000813590506121e081613751565b92915050565b6000602082840312156121f857600080fd5b600061220684828501612096565b91505092915050565b6000806040838503121561222257600080fd5b600061223085828601612096565b925050602061224185828601612096565b9150509250929050565b600080600080600060a0868803121561226357600080fd5b600061227188828901612096565b955050602061228288828901612096565b945050604086013567ffffffffffffffff81111561229f57600080fd5b6122ab888289016120d5565b935050606086013567ffffffffffffffff8111156122c857600080fd5b6122d4888289016120d5565b925050608086013567ffffffffffffffff8111156122f157600080fd5b6122fd88828901612153565b9150509295509295909350565b600080600080600060a0868803121561232257600080fd5b600061233088828901612096565b955050602061234188828901612096565b9450506040612352888289016121d1565b9350506060612363888289016121d1565b925050608086013567ffffffffffffffff81111561238057600080fd5b61238c88828901612153565b9150509295509295909350565b600080604083850312156123ac57600080fd5b60006123ba85828601612096565b92505060206123cb858286016120ff565b9150509250929050565b60008060008060008060c087890312156123ee57600080fd5b60006123fc89828a01612096565b965050602087013567ffffffffffffffff81111561241957600080fd5b61242589828a016121a7565b955050604061243689828a016121d1565b945050606061244789828a016121d1565b935050608061245889828a0161217d565b92505060a061246989828a01612192565b9150509295509295509295565b6000806040838503121561248957600080fd5b600061249785828601612096565b92505060206124a8858286016121d1565b9150509250929050565b600080604083850312156124c557600080fd5b600083013567ffffffffffffffff8111156124df57600080fd5b6124eb858286016120ab565b925050602083013567ffffffffffffffff81111561250857600080fd5b612514858286016120d5565b9150509250929050565b60006020828403121561253057600080fd5b600061253e84828501612114565b91505092915050565b6000806040838503121561255a57600080fd5b600061256885828601612114565b925050602061257985828601612096565b9150509250929050565b60006020828403121561259557600080fd5b60006125a384828501612129565b91505092915050565b6000602082840312156125be57600080fd5b60006125cc8482850161213e565b91505092915050565b6000602082840312156125e757600080fd5b60006125f5848285016121d1565b91505092915050565b600061260a838361294c565b60208301905092915050565b61261f81612f5b565b82525050565b600061263082612e3f565b61263a8185612e6d565b935061264583612e2f565b8060005b8381101561267657815161265d88826125fe565b975061266883612e60565b925050600181019050612649565b5085935050505092915050565b61268c81612f6d565b82525050565b61269b81612f79565b82525050565b60006126ac82612e4a565b6126b68185612e7e565b93506126c6818560208601613032565b6126cf81613219565b840191505092915050565b6126e381612fff565b82525050565b6126f281613011565b82525050565b600061270382612e55565b61270d8185612e8f565b935061271d818560208601613032565b61272681613219565b840191505092915050565b600061273c82612e55565b6127468185612ea0565b9350612756818560208601613032565b80840191505092915050565b600061276f603483612e8f565b915061277a82613237565b604082019050919050565b6000612792602083612e8f565b915061279d82613286565b602082019050919050565b60006127b5602883612e8f565b91506127c0826132af565b604082019050919050565b60006127d8602b83612e8f565b91506127e3826132fe565b604082019050919050565b60006127fb602983612e8f565b91506128068261334d565b604082019050919050565b600061281e602583612e8f565b91506128298261339c565b604082019050919050565b6000612841603283612e8f565b915061284c826133eb565b604082019050919050565b6000612864602a83612e8f565b915061286f8261343a565b604082019050919050565b6000612887601783612ea0565b915061289282613489565b601782019050919050565b60006128aa602983612e8f565b91506128b5826134b2565b604082019050919050565b60006128cd602983612e8f565b91506128d882613501565b604082019050919050565b60006128f0602883612e8f565b91506128fb82613550565b604082019050919050565b6000612913601183612ea0565b915061291e8261359f565b601182019050919050565b6000612936602f83612e8f565b9150612941826135c8565b604082019050919050565b61295581612ff5565b82525050565b61296481612ff5565b82525050565b60006129758261287a565b91506129818285612731565b915061298c82612906565b91506129988284612731565b91508190509392505050565b60006020820190506129b96000830184612616565b92915050565b600060a0820190506129d46000830188612616565b6129e16020830187612616565b81810360408301526129f38186612625565b90508181036060830152612a078185612625565b90508181036080830152612a1b81846126a1565b90509695505050505050565b600060a082019050612a3c6000830188612616565b612a496020830187612616565b612a56604083018661295b565b612a63606083018561295b565b8181036080830152612a7581846126a1565b90509695505050505050565b60006020820190508181036000830152612a9b8184612625565b905092915050565b60006040820190508181036000830152612abd8185612625565b90508181036020830152612ad18184612625565b90509392505050565b6000602082019050612aef6000830184612683565b92915050565b6000602082019050612b0a6000830184612692565b92915050565b60006020820190508181036000830152612b2a81846126f8565b905092915050565b600060a0820190508181036000830152612b4c81886126f8565b9050612b5b602083018761295b565b612b68604083018661295b565b612b7560608301856126da565b612b8260808301846126e9565b9695505050505050565b60006020820190508181036000830152612ba581612762565b9050919050565b60006020820190508181036000830152612bc581612785565b9050919050565b60006020820190508181036000830152612be5816127a8565b9050919050565b60006020820190508181036000830152612c05816127cb565b9050919050565b60006020820190508181036000830152612c25816127ee565b9050919050565b60006020820190508181036000830152612c4581612811565b9050919050565b60006020820190508181036000830152612c6581612834565b9050919050565b60006020820190508181036000830152612c8581612857565b9050919050565b60006020820190508181036000830152612ca58161289d565b9050919050565b60006020820190508181036000830152612cc5816128c0565b9050919050565b60006020820190508181036000830152612ce5816128e3565b9050919050565b60006020820190508181036000830152612d0581612929565b9050919050565b6000602082019050612d21600083018461295b565b92915050565b6000604082019050612d3c600083018561295b565b612d49602083018461295b565b9392505050565b6000612d5a612d6b565b9050612d6682826130c1565b919050565b6000604051905090565b600067ffffffffffffffff821115612d9057612d8f6131c8565b5b602082029050602081019050919050565b600067ffffffffffffffff821115612dbc57612dbb6131c8565b5b602082029050602081019050919050565b600067ffffffffffffffff821115612de857612de76131c8565b5b612df182613219565b9050602081019050919050565b600067ffffffffffffffff821115612e1957612e186131c8565b5b612e2282613219565b9050602081019050919050565b6000819050602082019050919050565b600081519050919050565b600081519050919050565b600081519050919050565b6000602082019050919050565b600082825260208201905092915050565b600082825260208201905092915050565b600082825260208201905092915050565b600081905092915050565b6000612eb682612ff5565b9150612ec183612ff5565b9250827fffffffffffffffffffffffffffffffffffffffffffffffffffffffffffffffff03821115612ef657612ef561313b565b5b828201905092915050565b6000612f0c82612ff5565b9150612f1783612ff5565b9250817fffffffffffffffffffffffffffffffffffffffffffffffffffffffffffffffff0483118215151615612f5057612f4f61313b565b5b828202905092915050565b6000612f6682612fd5565b9050919050565b60008115159050919050565b6000819050919050565b60007fffffffff0000000000000000000000000000000000000000000000000000000082169050919050565b6000819050612fbd826136ad565b919050565b6000819050612fd0826136c1565b919050565b600073ffffffffffffffffffffffffffffffffffffffff82169050919050565b6000819050919050565b600061300a82612faf565b9050919050565b600061301c82612fc2565b9050919050565b82818337600083830152505050565b60005b83811015613050578082015181840152602081019050613035565b8381111561305f576000848401525b50505050565b600061307082612ff5565b915060008214156130845761308361313b565b5b600182039050919050565b600060028204905060018216806130a757607f821691505b602082108114156130bb576130ba613199565b5b50919050565b6130ca82613219565b810181811067ffffffffffffffff821117156130e9576130e86131c8565b5b80604052505050565b60006130fd82612ff5565b91507fffffffffffffffffffffffffffffffffffffffffffffffffffffffffffffffff8214156131305761312f61313b565b5b600182019050919050565b7f4e487b7100000000000000000000000000000000000000000000000000000000600052601160045260246000fd5b7f4e487b7100000000000000000000000000000000000000000000000000000000600052602160045260246000fd5b7f4e487b7100000000000000000000000000000000000000000000000000000000600052602260045260246000fd5b7f4e487b7100000000000000000000000000000000000000000000000000000000600052604160045260246000fd5b600060033d11156132165760046000803e61321360005161322a565b90505b90565b6000601f19601f8301169050919050565b60008160e01c9050919050565b7f455243313135353a207472616e7366657220746f206e6f6e204552433131353560008201527f526563656976657220696d706c656d656e746572000000000000000000000000602082015250565b7f537472696e67733a20686578206c656e67746820696e73756666696369656e74600082015250565b7f455243313135353a204552433131353552656365697665722072656a6563746560008201527f6420746f6b656e73000000000000000000000000000000000000000000000000602082015250565b7f455243313135353a2062616c616e636520717565727920666f7220746865207a60008201527f65726f2061646472657373000000000000000000000000000000000000000000602082015250565b7f455243313135353a2063616c6c6572206973206e6f74206f776e6572206e6f7260008201527f20617070726f7665640000000000000000000000000000000000000000000000602082015250565b7f455243313135353a207472616e7366657220746f20746865207a65726f20616460008201527f6472657373000000000000000000000000000000000000000000000000000000602082015250565b7f455243313135353a207472616e736665722063616c6c6572206973206e6f742060008201527f6f776e6572206e6f7220617070726f7665640000000000000000000000000000602082015250565b7f455243313135353a20696e73756666696369656e742062616c616e636520666f60008201527f72207472616e7366657200000000000000000000000000000000000000000000602082015250565b7f416363657373436f6e74726f6c3a206163636f756e7420000000000000000000600082015250565b7f455243313135353a2073657474696e6720617070726f76616c2073746174757360008201527f20666f722073656c660000000000000000000000000000000000000000000000602082015250565b7f455243313135353a206163636f756e747320616e6420696473206c656e67746860008201527f206d69736d617463680000000000000000000000000000000000000000000000602082015250565b7f455243313135353a2069647320616e6420616d6f756e7473206c656e6774682060008201527f6d69736d61746368000000000000000000000000000000000000000000000000602082015250565b7f206973206d697373696e6720726f6c6520000000000000000000000000000000600082015250565b7f416363657373436f6e74726f6c3a2063616e206f6e6c792072656e6f756e636560008201527f20726f6c657320666f722073656c660000000000000000000000000000000000602082015250565b600060443d1015613627576136aa565b61362f612d6b565b60043d036004823e80513d602482011167ffffffffffffffff821117156136575750506136aa565b808201805167ffffffffffffffff81111561367557505050506136aa565b80602083010160043d0385018111156136925750505050506136aa565b6136a1826020018501866130c1565b82955050505050505b90565b600381106136be576136bd61316a565b5b50565b600581106136d2576136d161316a565b5b50565b6136de81612f5b565b81146136e957600080fd5b50565b6136f581612f6d565b811461370057600080fd5b50565b61370c81612f79565b811461371757600080fd5b50565b61372381612f83565b811461372e57600080fd5b50565b6003811061373e57600080fd5b50565b6005811061374e57600080fd5b50565b61375a81612ff5565b811461376557600080fd5b5056fea2646970667358221220f7711460a570c44db5ebed3138e353539417c4ba51851d69405e61dba7b8442964736f6c63430008040033",
  "linkReferences": {},
  "deployedLinkReferences": {}
}