{
  "_format": "hh-sol-artifact-1",
  "contractName": "FreakTeam",
  "sourceName": "contracts/FreakTeam.sol",
  "abi": [
    {
      "inputs": [
        {
          "internalType": "address",
          "name": "hr",
          "type": "address"
        },
        {
          "internalType": "address",
          "name": "financial",
          "type": "address"
        }
      ],
      "stateMutability": "nonpayable",
      "type": "constructor"
    },
    {
      "anonymous": false,
      "inputs": [
        {
          "indexed": true,
          "internalType": "address",
          "name": "account",
          "type": "address"
        },
        {
          "indexed": true,
          "internalType": "address",
          "name": "operator",
          "type": "address"
        },
        {
          "indexed": false,
          "internalType": "bool",
          "name": "approved",
          "type": "bool"
        }
      ],
      "name": "ApprovalForAll",
      "type": "event"
    },
    {
      "anonymous": false,
      "inputs": [
        {
          "indexed": true,
          "internalType": "bytes32",
          "name": "role",
          "type": "bytes32"
        },
        {
          "indexed": true,
          "internalType": "bytes32",
          "name": "previousAdminRole",
          "type": "bytes32"
        },
        {
          "indexed": true,
          "internalType": "bytes32",
          "name": "newAdminRole",
          "type": "bytes32"
        }
      ],
      "name": "RoleAdminChanged",
      "type": "event"
    },
    {
      "anonymous": false,
      "inputs": [
        {
          "indexed": true,
          "internalType": "bytes32",
          "name": "role",
          "type": "bytes32"
        },
        {
          "indexed": true,
          "internalType": "address",
          "name": "account",
          "type": "address"
        },
        {
          "indexed": true,
          "internalType": "address",
          "name": "sender",
          "type": "address"
        }
      ],
      "name": "RoleGranted",
      "type": "event"
    },
    {
      "anonymous": false,
      "inputs": [
        {
          "indexed": true,
          "internalType": "bytes32",
          "name": "role",
          "type": "bytes32"
        },
        {
          "indexed": true,
          "internalType": "address",
          "name": "account",
          "type": "address"
        },
        {
          "indexed": true,
          "internalType": "address",
          "name": "sender",
          "type": "address"
        }
      ],
      "name": "RoleRevoked",
      "type": "event"
    },
    {
      "anonymous": false,
      "inputs": [
        {
          "indexed": true,
          "internalType": "address",
          "name": "operator",
          "type": "address"
        },
        {
          "indexed": true,
          "internalType": "address",
          "name": "from",
          "type": "address"
        },
        {
          "indexed": true,
          "internalType": "address",
          "name": "to",
          "type": "address"
        },
        {
          "indexed": false,
          "internalType": "uint256[]",
          "name": "ids",
          "type": "uint256[]"
        },
        {
          "indexed": false,
          "internalType": "uint256[]",
          "name": "values",
          "type": "uint256[]"
        }
      ],
      "name": "TransferBatch",
      "type": "event"
    },
    {
      "anonymous": false,
      "inputs": [
        {
          "indexed": true,
          "internalType": "address",
          "name": "operator",
          "type": "address"
        },
        {
          "indexed": true,
          "internalType": "address",
          "name": "from",
          "type": "address"
        },
        {
          "indexed": true,
          "internalType": "address",
          "name": "to",
          "type": "address"
        },
        {
          "indexed": false,
          "internalType": "uint256",
          "name": "id",
          "type": "uint256"
        },
        {
          "indexed": false,
          "internalType": "uint256",
          "name": "value",
          "type": "uint256"
        }
      ],
      "name": "TransferSingle",
      "type": "event"
    },
    {
      "anonymous": false,
      "inputs": [
        {
          "indexed": false,
          "internalType": "string",
          "name": "value",
          "type": "string"
        },
        {
          "indexed": true,
          "internalType": "uint256",
          "name": "id",
          "type": "uint256"
        }
      ],
      "name": "URI",
      "type": "event"
    },
    {
      "anonymous": false,
      "inputs": [
        {
          "indexed": false,
          "internalType": "address",
          "name": "_address",
          "type": "address"
        },
        {
          "indexed": false,
          "internalType": "string",
          "name": "_name",
          "type": "string"
        },
        {
          "indexed": false,
          "internalType": "uint256",
          "name": "startDate",
          "type": "uint256"
        },
        {
          "indexed": false,
          "internalType": "uint256",
          "name": "employeeNumber",
          "type": "uint256"
        },
        {
          "indexed": false,
          "internalType": "enum Role",
          "name": "role",
          "type": "uint8"
        },
        {
          "indexed": false,
          "internalType": "enum Skill",
          "name": "skill",
          "type": "uint8"
        }
      ],
      "name": "addedFreak",
      "type": "event"
    },
    {
      "inputs": [],
      "name": "DEFAULT_ADMIN_ROLE",
      "outputs": [
        {
          "internalType": "bytes32",
          "name": "",
          "type": "bytes32"
        }
      ],
      "stateMutability": "view",
      "type": "function"
    },
    {
      "inputs": [],
      "name": "FINANCIAL_ROLE",
      "outputs": [
        {
          "internalType": "bytes32",
          "name": "",
          "type": "bytes32"
        }
      ],
      "stateMutability": "view",
      "type": "function"
    },
    {
      "inputs": [],
      "name": "FREAK_ROLE",
      "outputs": [
        {
          "internalType": "bytes32",
          "name": "",
          "type": "bytes32"
        }
      ],
      "stateMutability": "view",
      "type": "function"
    },
    {
      "inputs": [],
      "name": "HR_ROLE",
      "outputs": [
        {
          "internalType": "bytes32",
          "name": "",
          "type": "bytes32"
        }
      ],
      "stateMutability": "view",
      "type": "function"
    },
    {
      "inputs": [
        {
          "internalType": "address",
          "name": "_address",
          "type": "address"
        },
        {
          "internalType": "string",
          "name": "_name",
          "type": "string"
        },
        {
          "internalType": "uint256",
          "name": "_startDate",
          "type": "uint256"
        },
        {
          "internalType": "uint256",
          "name": "_employeeNumber",
          "type": "uint256"
        },
        {
          "internalType": "enum Role",
          "name": "_role",
          "type": "uint8"
        },
        {
          "internalType": "enum Skill",
          "name": "_skill",
          "type": "uint8"
        }
      ],
      "name": "addNewFreak",
      "outputs": [],
      "stateMutability": "nonpayable",
      "type": "function"
    },
    {
      "inputs": [
        {
          "internalType": "address",
          "name": "account",
          "type": "address"
        },
        {
          "internalType": "uint256",
          "name": "id",
          "type": "uint256"
        }
      ],
      "name": "balanceOf",
      "outputs": [
        {
          "internalType": "uint256",
          "name": "",
          "type": "uint256"
        }
      ],
      "stateMutability": "view",
      "type": "function"
    },
    {
      "inputs": [
        {
          "internalType": "address[]",
          "name": "accounts",
          "type": "address[]"
        },
        {
          "internalType": "uint256[]",
          "name": "ids",
          "type": "uint256[]"
        }
      ],
      "name": "balanceOfBatch",
      "outputs": [
        {
          "internalType": "uint256[]",
          "name": "",
          "type": "uint256[]"
        }
      ],
      "stateMutability": "view",
      "type": "function"
    },
    {
      "inputs": [
        {
          "internalType": "uint256",
          "name": "",
          "type": "uint256"
        }
      ],
      "name": "freakAccts",
      "outputs": [
        {
          "internalType": "address",
          "name": "",
          "type": "address"
        }
      ],
      "stateMutability": "view",
      "type": "function"
    },
    {
      "inputs": [
        {
          "internalType": "address",
          "name": "",
          "type": "address"
        }
      ],
      "name": "freaks",
      "outputs": [
        {
          "internalType": "string",
          "name": "name",
          "type": "string"
        },
        {
          "internalType": "uint256",
          "name": "startDate",
          "type": "uint256"
        },
        {
          "internalType": "uint256",
          "name": "employeeNumber",
          "type": "uint256"
        },
        {
          "internalType": "enum Role",
          "name": "choiceRole",
          "type": "uint8"
        },
        {
          "internalType": "enum Skill",
          "name": "choiceSkill",
          "type": "uint8"
        }
      ],
      "stateMutability": "view",
      "type": "function"
    },
    {
      "inputs": [
        {
          "internalType": "address",
          "name": "freakAddress",
          "type": "address"
        }
      ],
      "name": "getFreak",
      "outputs": [
        {
          "components": [
            {
              "internalType": "string",
              "name": "name",
              "type": "string"
            },
            {
              "internalType": "uint256",
              "name": "startDate",
              "type": "uint256"
            },
            {
              "internalType": "uint256",
              "name": "employeeNumber",
              "type": "uint256"
            },
            {
              "internalType": "enum Role",
              "name": "choiceRole",
              "type": "uint8"
            },
            {
              "internalType": "enum Skill",
              "name": "choiceSkill",
              "type": "uint8"
            }
          ],
          "internalType": "struct Freak",
          "name": "freak",
          "type": "tuple"
        }
      ],
      "stateMutability": "view",
      "type": "function"
    },
    {
      "inputs": [
        {
          "internalType": "bytes32",
          "name": "role",
          "type": "bytes32"
        }
      ],
      "name": "getRoleAdmin",
      "outputs": [
        {
          "internalType": "bytes32",
          "name": "",
          "type": "bytes32"
        }
      ],
      "stateMutability": "view",
      "type": "function"
    },
    {
      "inputs": [
        {
          "internalType": "bytes32",
          "name": "role",
          "type": "bytes32"
        },
        {
          "internalType": "address",
          "name": "account",
          "type": "address"
        }
      ],
      "name": "grantRole",
      "outputs": [],
      "stateMutability": "nonpayable",
      "type": "function"
    },
    {
      "inputs": [
        {
          "internalType": "bytes32",
          "name": "role",
          "type": "bytes32"
        },
        {
          "internalType": "address",
          "name": "account",
          "type": "address"
        }
      ],
      "name": "hasRole",
      "outputs": [
        {
          "internalType": "bool",
          "name": "",
          "type": "bool"
        }
      ],
      "stateMutability": "view",
      "type": "function"
    },
    {
      "inputs": [
        {
          "internalType": "address",
          "name": "account",
          "type": "address"
        },
        {
          "internalType": "address",
          "name": "operator",
          "type": "address"
        }
      ],
      "name": "isApprovedForAll",
      "outputs": [
        {
          "internalType": "bool",
          "name": "",
          "type": "bool"
        }
      ],
      "stateMutability": "view",
      "type": "function"
    },
    {
      "inputs": [
        {
          "internalType": "bytes32",
          "name": "role",
          "type": "bytes32"
        },
        {
          "internalType": "address",
          "name": "account",
          "type": "address"
        }
      ],
      "name": "renounceRole",
      "outputs": [],
      "stateMutability": "nonpayable",
      "type": "function"
    },
    {
      "inputs": [
        {
          "internalType": "bytes32",
          "name": "role",
          "type": "bytes32"
        },
        {
          "internalType": "address",
          "name": "account",
          "type": "address"
        }
      ],
      "name": "revokeRole",
      "outputs": [],
      "stateMutability": "nonpayable",
      "type": "function"
    },
    {
      "inputs": [
        {
          "internalType": "address",
          "name": "from",
          "type": "address"
        },
        {
          "internalType": "address",
          "name": "to",
          "type": "address"
        },
        {
          "internalType": "uint256[]",
          "name": "ids",
          "type": "uint256[]"
        },
        {
          "internalType": "uint256[]",
          "name": "amounts",
          "type": "uint256[]"
        },
        {
          "internalType": "bytes",
          "name": "data",
          "type": "bytes"
        }
      ],
      "name": "safeBatchTransferFrom",
      "outputs": [],
      "stateMutability": "nonpayable",
      "type": "function"
    },
    {
      "inputs": [
        {
          "internalType": "address",
          "name": "from",
          "type": "address"
        },
        {
          "internalType": "address",
          "name": "to",
          "type": "address"
        },
        {
          "internalType": "uint256",
          "name": "id",
          "type": "uint256"
        },
        {
          "internalType": "uint256",
          "name": "amount",
          "type": "uint256"
        },
        {
          "internalType": "bytes",
          "name": "data",
          "type": "bytes"
        }
      ],
      "name": "safeTransferFrom",
      "outputs": [],
      "stateMutability": "nonpayable",
      "type": "function"
    },
    {
      "inputs": [
        {
          "internalType": "address",
          "name": "operator",
          "type": "address"
        },
        {
          "internalType": "bool",
          "name": "approved",
          "type": "bool"
        }
      ],
      "name": "setApprovalForAll",
      "outputs": [],
      "stateMutability": "nonpayable",
      "type": "function"
    },
    {
      "inputs": [
        {
          "internalType": "bytes4",
          "name": "interfaceId",
          "type": "bytes4"
        }
      ],
      "name": "supportsInterface",
      "outputs": [
        {
          "internalType": "bool",
          "name": "",
          "type": "bool"
        }
      ],
      "stateMutability": "view",
      "type": "function"
    },
    {
      "inputs": [
        {
          "internalType": "uint256",
          "name": "",
          "type": "uint256"
        }
      ],
      "name": "uri",
      "outputs": [
        {
          "internalType": "string",
          "name": "",
          "type": "string"
        }
      ],
      "stateMutability": "view",
      "type": "function"
    }
  ],
  "bytecode": "0x60806040523480156200001157600080fd5b506040516200489f3803806200489f833981810160405281019062000037919062000408565b6040518060200160405280600081525062000058816200012c60201b60201c565b506200006e6000801b336200014860201b60201c565b620000a07ffd70517941c75212b0f9013e45c47a37d6d983c5304288c7af285f2ea40cbba7836200014860201b60201c565b620000d27f4714c98f64aa1dda8d8aaec6cbc38c2e3cbb0aeca4ed11e04b3fd94f2ee2cf4b826200014860201b60201c565b620001247f6b5fef62e5bc2370ac8da5f60f559eeb948e92965cc957d5211411a64d62e7777ffd70517941c75212b0f9013e45c47a37d6d983c5304288c7af285f2ea40cbba76200015e60201b60201c565b5050620004fc565b80600290805190602001906200014492919062000341565b5050565b6200015a8282620001bc60201b60201c565b5050565b806200017083620002ae60201b60201c565b837fbd79b86ffe0ab8e8776151514217cd7cacd52c909f66475c3af44e129f0b00ff60405160405180910390a48060036000848152602001908152602001600020600101819055505050565b620001ce8282620002ce60201b60201c565b620002aa5760016003600084815260200190815260200160002060000160008373ffffffffffffffffffffffffffffffffffffffff1673ffffffffffffffffffffffffffffffffffffffff16815260200190815260200160002060006101000a81548160ff0219169083151502179055506200024f6200033960201b60201c565b73ffffffffffffffffffffffffffffffffffffffff168173ffffffffffffffffffffffffffffffffffffffff16837f2f8788117e7eff1d82e926ec794901d17c78024a50270940304540a733656f0d60405160405180910390a45b5050565b600060036000838152602001908152602001600020600101549050919050565b60006003600084815260200190815260200160002060000160008373ffffffffffffffffffffffffffffffffffffffff1673ffffffffffffffffffffffffffffffffffffffff16815260200190815260200160002060009054906101000a900460ff16905092915050565b600033905090565b8280546200034f906200047d565b90600052602060002090601f016020900481019282620003735760008555620003bf565b82601f106200038e57805160ff1916838001178555620003bf565b82800160010185558215620003bf579182015b82811115620003be578251825591602001919060010190620003a1565b5b509050620003ce9190620003d2565b5090565b5b80821115620003ed576000816000905550600101620003d3565b5090565b6000815190506200040281620004e2565b92915050565b600080604083850312156200041c57600080fd5b60006200042c85828601620003f1565b92505060206200043f85828601620003f1565b9150509250929050565b600062000456826200045d565b9050919050565b600073ffffffffffffffffffffffffffffffffffffffff82169050919050565b600060028204905060018216806200049657607f821691505b60208210811415620004ad57620004ac620004b3565b5b50919050565b7f4e487b7100000000000000000000000000000000000000000000000000000000600052602260045260246000fd5b620004ed8162000449565b8114620004f957600080fd5b50565b614393806200050c6000396000f3fe608060405234801561001057600080fd5b50600436106101365760003560e01c806391d14854116100b8578063c2a78ea31161007c578063c2a78ea314610387578063ca806116146103b7578063d547741f146103d5578063e985e9c5146103f1578063f242432a14610421578063f3c6a1981461043d57610136565b806391d14854146102e3578063a217fddf14610313578063a22cb46514610331578063ae7eb9661461034d578063bd678ba51461036957610136565b80632eb2c2d6116100ff5780632eb2c2d61461022f5780632f2ff15d1461024b57806336568abe146102675780633d28b5a9146102835780634e1273f4146102b357610136565b8062fdd58e1461013b57806301ffc9a71461016b5780630e89341c1461019b5780631f0beb7e146101cb578063248a9ca3146101ff575b600080fd5b61015560048036038101906101509190612d73565b61045b565b6040516101629190613829565b60405180910390f35b61018560048036038101906101809190612e80565b610524565b6040516101929190613575565b60405180910390f35b6101b560048036038101906101b09190612ed2565b610536565b6040516101c291906135ab565b60405180910390f35b6101e560048036038101906101e09190612ae3565b6105ca565b6040516101f69594939291906135cd565b60405180910390f35b61021960048036038101906102149190612e1b565b6106a2565b6040516102269190613590565b60405180910390f35b61024960048036038101906102449190612b48565b6106c2565b005b61026560048036038101906102609190612e44565b610763565b005b610281600480360381019061027c9190612e44565b61078c565b005b61029d60048036038101906102989190612ae3565b61080f565b6040516102aa9190613807565b60405180910390f35b6102cd60048036038101906102c89190612daf565b610a1c565b6040516102da919061351c565b60405180910390f35b6102fd60048036038101906102f89190612e44565b610bcd565b60405161030a9190613575565b60405180910390f35b61031b610c38565b6040516103289190613590565b60405180910390f35b61034b60048036038101906103469190612c96565b610c3f565b005b61036760048036038101906103629190612cd2565b610dc0565b005b6103716111a5565b60405161037e9190613590565b60405180910390f35b6103a1600480360381019061039c9190612ed2565b6111c9565b6040516103ae91906133d7565b60405180910390f35b6103bf611208565b6040516103cc9190613590565b60405180910390f35b6103ef60048036038101906103ea9190612e44565b61122c565b005b61040b60048036038101906104069190612b0c565b611255565b6040516104189190613575565b60405180910390f35b61043b60048036038101906104369190612c07565b6112e9565b005b61044561138a565b6040516104529190613590565b60405180910390f35b60008073ffffffffffffffffffffffffffffffffffffffff168373ffffffffffffffffffffffffffffffffffffffff1614156104cc576040517f08c379a00000000000000000000000000000000000000000000000000000000081526004016104c390613687565b60405180910390fd5b60008083815260200190815260200160002060008473ffffffffffffffffffffffffffffffffffffffff1673ffffffffffffffffffffffffffffffffffffffff16815260200190815260200160002054905092915050565b600061052f826113ae565b9050919050565b60606002805461054590613bbd565b80601f016020809104026020016040519081016040528092919081815260200182805461057190613bbd565b80156105be5780601f10610593576101008083540402835291602001916105be565b820191906000526020600020905b8154815290600101906020018083116105a157829003601f168201915b50505050509050919050565b60046020528060005260406000206000915090508060000180546105ed90613bbd565b80601f016020809104026020016040519081016040528092919081815260200182805461061990613bbd565b80156106665780601f1061063b57610100808354040283529160200191610666565b820191906000526020600020905b81548152906001019060200180831161064957829003601f168201915b5050505050908060010154908060020154908060030160009054906101000a900460ff16908060030160019054906101000a900460ff16905085565b600060036000838152602001908152602001600020600101549050919050565b6106ca611428565b73ffffffffffffffffffffffffffffffffffffffff168573ffffffffffffffffffffffffffffffffffffffff161480610710575061070f8561070a611428565b611255565b5b61074f576040517f08c379a0000000000000000000000000000000000000000000000000000000008152600401610746906136e7565b60405180910390fd5b61075c8585858585611430565b5050505050565b61076c826106a2565b61077d81610778611428565b611790565b610787838361182d565b505050565b610794611428565b73ffffffffffffffffffffffffffffffffffffffff168173ffffffffffffffffffffffffffffffffffffffff1614610801576040517f08c379a00000000000000000000000000000000000000000000000000000000081526004016107f8906137e7565b60405180910390fd5b61080b828261190e565b5050565b6108176126fd565b600460008373ffffffffffffffffffffffffffffffffffffffff1673ffffffffffffffffffffffffffffffffffffffff1681526020019081526020016000206040518060a001604052908160008201805461087190613bbd565b80601f016020809104026020016040519081016040528092919081815260200182805461089d90613bbd565b80156108ea5780601f106108bf576101008083540402835291602001916108ea565b820191906000526020600020905b8154815290600101906020018083116108cd57829003601f168201915b5050505050815260200160018201548152602001600282015481526020016003820160009054906101000a900460ff166002811115610952577f4e487b7100000000000000000000000000000000000000000000000000000000600052602160045260246000fd5b600281111561098a577f4e487b7100000000000000000000000000000000000000000000000000000000600052602160045260246000fd5b81526020016003820160019054906101000a900460ff1660048111156109d9577f4e487b7100000000000000000000000000000000000000000000000000000000600052602160045260246000fd5b6004811115610a11577f4e487b7100000000000000000000000000000000000000000000000000000000600052602160045260246000fd5b815250509050919050565b60608151835114610a62576040517f08c379a0000000000000000000000000000000000000000000000000000000008152600401610a5990613787565b60405180910390fd5b6000835167ffffffffffffffff811115610aa5577f4e487b7100000000000000000000000000000000000000000000000000000000600052604160045260246000fd5b604051908082528060200260200182016040528015610ad35781602001602082028036833780820191505090505b50905060005b8451811015610bc257610b6c858281518110610b1e577f4e487b7100000000000000000000000000000000000000000000000000000000600052603260045260246000fd5b6020026020010151858381518110610b5f577f4e487b7100000000000000000000000000000000000000000000000000000000600052603260045260246000fd5b602002602001015161045b565b828281518110610ba5577f4e487b7100000000000000000000000000000000000000000000000000000000600052603260045260246000fd5b60200260200101818152505080610bbb90613c20565b9050610ad9565b508091505092915050565b60006003600084815260200190815260200160002060000160008373ffffffffffffffffffffffffffffffffffffffff1673ffffffffffffffffffffffffffffffffffffffff16815260200190815260200160002060009054906101000a900460ff16905092915050565b6000801b81565b8173ffffffffffffffffffffffffffffffffffffffff16610c5e611428565b73ffffffffffffffffffffffffffffffffffffffff161415610cb5576040517f08c379a0000000000000000000000000000000000000000000000000000000008152600401610cac90613767565b60405180910390fd5b8060016000610cc2611428565b73ffffffffffffffffffffffffffffffffffffffff1673ffffffffffffffffffffffffffffffffffffffff16815260200190815260200160002060008473ffffffffffffffffffffffffffffffffffffffff1673ffffffffffffffffffffffffffffffffffffffff16815260200190815260200160002060006101000a81548160ff0219169083151502179055508173ffffffffffffffffffffffffffffffffffffffff16610d6f611428565b73ffffffffffffffffffffffffffffffffffffffff167f17307eab39ab6107e8899845ad3d59bd9653f200f220920489ca2b5937696c3183604051610db49190613575565b60405180910390a35050565b610dea7ffd70517941c75212b0f9013e45c47a37d6d983c5304288c7af285f2ea40cbba733610bcd565b610e29576040517f08c379a0000000000000000000000000000000000000000000000000000000008152600401610e2090613727565b60405180910390fd5b6000600460008873ffffffffffffffffffffffffffffffffffffffff1673ffffffffffffffffffffffffffffffffffffffff1681526020019081526020016000206002015414610eae576040517f08c379a0000000000000000000000000000000000000000000000000000000008152600401610ea590613747565b60405180910390fd5b610ed87f6b5fef62e5bc2370ac8da5f60f559eeb948e92965cc957d5211411a64d62e77787610763565b84600460008873ffffffffffffffffffffffffffffffffffffffff1673ffffffffffffffffffffffffffffffffffffffff1681526020019081526020016000206000019080519060200190610f2e92919061279c565b5083600460008873ffffffffffffffffffffffffffffffffffffffff1673ffffffffffffffffffffffffffffffffffffffff1681526020019081526020016000206001018190555082600460008873ffffffffffffffffffffffffffffffffffffffff1673ffffffffffffffffffffffffffffffffffffffff1681526020019081526020016000206002018190555081600460008873ffffffffffffffffffffffffffffffffffffffff1673ffffffffffffffffffffffffffffffffffffffff16815260200190815260200160002060030160006101000a81548160ff02191690836002811115611048577f4e487b7100000000000000000000000000000000000000000000000000000000600052602160045260246000fd5b021790555080600460008873ffffffffffffffffffffffffffffffffffffffff1673ffffffffffffffffffffffffffffffffffffffff16815260200190815260200160002060030160016101000a81548160ff021916908360048111156110d8577f4e487b7100000000000000000000000000000000000000000000000000000000600052602160045260246000fd5b02179055506005869080600181540180825580915050600190039060005260206000200160009091909190916101000a81548173ffffffffffffffffffffffffffffffffffffffff021916908373ffffffffffffffffffffffffffffffffffffffff16021790555061115c86846001604051806020016040528060008152506119f0565b7f3afae8c0378e52a8343d28c129ba78c26bf4724de9c6e6259505123b9800299b868686868686604051611195969594939291906134b4565b60405180910390a1505050505050565b7f6b5fef62e5bc2370ac8da5f60f559eeb948e92965cc957d5211411a64d62e77781565b600581815481106111d957600080fd5b906000526020600020016000915054906101000a900473ffffffffffffffffffffffffffffffffffffffff1681565b7f4714c98f64aa1dda8d8aaec6cbc38c2e3cbb0aeca4ed11e04b3fd94f2ee2cf4b81565b611235826106a2565b61124681611241611428565b611790565b611250838361190e565b505050565b6000600160008473ffffffffffffffffffffffffffffffffffffffff1673ffffffffffffffffffffffffffffffffffffffff16815260200190815260200160002060008373ffffffffffffffffffffffffffffffffffffffff1673ffffffffffffffffffffffffffffffffffffffff16815260200190815260200160002060009054906101000a900460ff16905092915050565b6112f1611428565b73ffffffffffffffffffffffffffffffffffffffff168573ffffffffffffffffffffffffffffffffffffffff161480611337575061133685611331611428565b611255565b5b611376576040517f08c379a000000000000000000000000000000000000000000000000000000000815260040161136d906136a7565b60405180910390fd5b6113838585858585611b86565b5050505050565b7ffd70517941c75212b0f9013e45c47a37d6d983c5304288c7af285f2ea40cbba781565b60007f7965db0b000000000000000000000000000000000000000000000000000000007bffffffffffffffffffffffffffffffffffffffffffffffffffffffff1916827bffffffffffffffffffffffffffffffffffffffffffffffffffffffff19161480611421575061142082611e08565b5b9050919050565b600033905090565b8151835114611474576040517f08c379a000000000000000000000000000000000000000000000000000000000815260040161146b906137a7565b60405180910390fd5b600073ffffffffffffffffffffffffffffffffffffffff168473ffffffffffffffffffffffffffffffffffffffff1614156114e4576040517f08c379a00000000000000000000000000000000000000000000000000000000081526004016114db906136c7565b60405180910390fd5b60006114ee611428565b90506114fe818787878787611eea565b60005b84518110156116fb576000858281518110611545577f4e487b7100000000000000000000000000000000000000000000000000000000600052603260045260246000fd5b60200260200101519050600085838151811061158a577f4e487b7100000000000000000000000000000000000000000000000000000000600052603260045260246000fd5b60200260200101519050600080600084815260200190815260200160002060008b73ffffffffffffffffffffffffffffffffffffffff1673ffffffffffffffffffffffffffffffffffffffff1681526020019081526020016000205490508181101561162b576040517f08c379a000000000000000000000000000000000000000000000000000000000815260040161162290613707565b60405180910390fd5b81810360008085815260200190815260200160002060008c73ffffffffffffffffffffffffffffffffffffffff1673ffffffffffffffffffffffffffffffffffffffff168152602001908152602001600020819055508160008085815260200190815260200160002060008b73ffffffffffffffffffffffffffffffffffffffff1673ffffffffffffffffffffffffffffffffffffffff16815260200190815260200160002060008282546116e091906139d9565b92505081905550505050806116f490613c20565b9050611501565b508473ffffffffffffffffffffffffffffffffffffffff168673ffffffffffffffffffffffffffffffffffffffff168273ffffffffffffffffffffffffffffffffffffffff167f4a39dc06d4c0dbc64b70af90fd698a233a518aa5d07e595d983b8c0526c8f7fb878760405161177292919061353e565b60405180910390a4611788818787878787611ef2565b505050505050565b61179a8282610bcd565b611829576117bf8173ffffffffffffffffffffffffffffffffffffffff1660146120d9565b6117cd8360001c60206120d9565b6040516020016117de92919061339d565b6040516020818303038152906040526040517f08c379a000000000000000000000000000000000000000000000000000000000815260040161182091906135ab565b60405180910390fd5b5050565b6118378282610bcd565b61190a5760016003600084815260200190815260200160002060000160008373ffffffffffffffffffffffffffffffffffffffff1673ffffffffffffffffffffffffffffffffffffffff16815260200190815260200160002060006101000a81548160ff0219169083151502179055506118af611428565b73ffffffffffffffffffffffffffffffffffffffff168173ffffffffffffffffffffffffffffffffffffffff16837f2f8788117e7eff1d82e926ec794901d17c78024a50270940304540a733656f0d60405160405180910390a45b5050565b6119188282610bcd565b156119ec5760006003600084815260200190815260200160002060000160008373ffffffffffffffffffffffffffffffffffffffff1673ffffffffffffffffffffffffffffffffffffffff16815260200190815260200160002060006101000a81548160ff021916908315150217905550611991611428565b73ffffffffffffffffffffffffffffffffffffffff168173ffffffffffffffffffffffffffffffffffffffff16837ff6391f5c32d9c69d2a47ea670b442974b53935d1edc7fd64eb21e047a839171b60405160405180910390a45b5050565b600073ffffffffffffffffffffffffffffffffffffffff168473ffffffffffffffffffffffffffffffffffffffff161415611a60576040517f08c379a0000000000000000000000000000000000000000000000000000000008152600401611a57906137c7565b60405180910390fd5b6000611a6a611428565b9050611a8b81600087611a7c886123d3565b611a85886123d3565b87611eea565b8260008086815260200190815260200160002060008773ffffffffffffffffffffffffffffffffffffffff1673ffffffffffffffffffffffffffffffffffffffff1681526020019081526020016000206000828254611aea91906139d9565b925050819055508473ffffffffffffffffffffffffffffffffffffffff16600073ffffffffffffffffffffffffffffffffffffffff168273ffffffffffffffffffffffffffffffffffffffff167fc3d58168c5ae7397731d063d5bbf3d657854427343f4c083240f7aacaa2d0f628787604051611b68929190613844565b60405180910390a4611b7f81600087878787612499565b5050505050565b600073ffffffffffffffffffffffffffffffffffffffff168473ffffffffffffffffffffffffffffffffffffffff161415611bf6576040517f08c379a0000000000000000000000000000000000000000000000000000000008152600401611bed906136c7565b60405180910390fd5b6000611c00611428565b9050611c20818787611c11886123d3565b611c1a886123d3565b87611eea565b600080600086815260200190815260200160002060008873ffffffffffffffffffffffffffffffffffffffff1673ffffffffffffffffffffffffffffffffffffffff16815260200190815260200160002054905083811015611cb7576040517f08c379a0000000000000000000000000000000000000000000000000000000008152600401611cae90613707565b60405180910390fd5b83810360008087815260200190815260200160002060008973ffffffffffffffffffffffffffffffffffffffff1673ffffffffffffffffffffffffffffffffffffffff168152602001908152602001600020819055508360008087815260200190815260200160002060008873ffffffffffffffffffffffffffffffffffffffff1673ffffffffffffffffffffffffffffffffffffffff1681526020019081526020016000206000828254611d6c91906139d9565b925050819055508573ffffffffffffffffffffffffffffffffffffffff168773ffffffffffffffffffffffffffffffffffffffff168373ffffffffffffffffffffffffffffffffffffffff167fc3d58168c5ae7397731d063d5bbf3d657854427343f4c083240f7aacaa2d0f628888604051611de9929190613844565b60405180910390a4611dff828888888888612499565b50505050505050565b60007fd9b67a26000000000000000000000000000000000000000000000000000000007bffffffffffffffffffffffffffffffffffffffffffffffffffffffff1916827bffffffffffffffffffffffffffffffffffffffffffffffffffffffff19161480611ed357507f0e89341c000000000000000000000000000000000000000000000000000000007bffffffffffffffffffffffffffffffffffffffffffffffffffffffff1916827bffffffffffffffffffffffffffffffffffffffffffffffffffffffff1916145b80611ee35750611ee282612680565b5b9050919050565b505050505050565b611f118473ffffffffffffffffffffffffffffffffffffffff166126ea565b156120d1578373ffffffffffffffffffffffffffffffffffffffff1663bc197c8187878686866040518663ffffffff1660e01b8152600401611f579594939291906133f2565b602060405180830381600087803b158015611f7157600080fd5b505af1925050508015611fa257506040513d601f19601f82011682018060405250810190611f9f9190612ea9565b60015b61204857611fae613d25565b806308c379a0141561200b5750611fc361420c565b80611fce575061200d565b806040517f08c379a000000000000000000000000000000000000000000000000000000000815260040161200291906135ab565b60405180910390fd5b505b6040517f08c379a000000000000000000000000000000000000000000000000000000000815260040161203f90613627565b60405180910390fd5b63bc197c8160e01b7bffffffffffffffffffffffffffffffffffffffffffffffffffffffff1916817bffffffffffffffffffffffffffffffffffffffffffffffffffffffff1916146120cf576040517f08c379a00000000000000000000000000000000000000000000000000000000081526004016120c690613667565b60405180910390fd5b505b505050505050565b6060600060028360026120ec9190613a2f565b6120f691906139d9565b67ffffffffffffffff811115612135577f4e487b7100000000000000000000000000000000000000000000000000000000600052604160045260246000fd5b6040519080825280601f01601f1916602001820160405280156121675781602001600182028036833780820191505090505b5090507f3000000000000000000000000000000000000000000000000000000000000000816000815181106121c5577f4e487b7100000000000000000000000000000000000000000000000000000000600052603260045260246000fd5b60200101907effffffffffffffffffffffffffffffffffffffffffffffffffffffffffffff1916908160001a9053507f78000000000000000000000000000000000000000000000000000000000000008160018151811061224f577f4e487b7100000000000000000000000000000000000000000000000000000000600052603260045260246000fd5b60200101907effffffffffffffffffffffffffffffffffffffffffffffffffffffffffffff1916908160001a9053506000600184600261228f9190613a2f565b61229991906139d9565b90505b6001811115612385577f3031323334353637383961626364656600000000000000000000000000000000600f861660108110612301577f4e487b7100000000000000000000000000000000000000000000000000000000600052603260045260246000fd5b1a60f81b82828151811061233e577f4e487b7100000000000000000000000000000000000000000000000000000000600052603260045260246000fd5b60200101907effffffffffffffffffffffffffffffffffffffffffffffffffffffffffffff1916908160001a905350600485901c94508061237e90613b93565b905061229c565b50600084146123c9576040517f08c379a00000000000000000000000000000000000000000000000000000000081526004016123c090613647565b60405180910390fd5b8091505092915050565b60606000600167ffffffffffffffff811115612418577f4e487b7100000000000000000000000000000000000000000000000000000000600052604160045260246000fd5b6040519080825280602002602001820160405280156124465781602001602082028036833780820191505090505b5090508281600081518110612484577f4e487b7100000000000000000000000000000000000000000000000000000000600052603260045260246000fd5b60200260200101818152505080915050919050565b6124b88473ffffffffffffffffffffffffffffffffffffffff166126ea565b15612678578373ffffffffffffffffffffffffffffffffffffffff1663f23a6e6187878686866040518663ffffffff1660e01b81526004016124fe95949392919061345a565b602060405180830381600087803b15801561251857600080fd5b505af192505050801561254957506040513d601f19601f820116820180604052508101906125469190612ea9565b60015b6125ef57612555613d25565b806308c379a014156125b2575061256a61420c565b8061257557506125b4565b806040517f08c379a00000000000000000000000000000000000000000000000000000000081526004016125a991906135ab565b60405180910390fd5b505b6040517f08c379a00000000000000000000000000000000000000000000000000000000081526004016125e690613627565b60405180910390fd5b63f23a6e6160e01b7bffffffffffffffffffffffffffffffffffffffffffffffffffffffff1916817bffffffffffffffffffffffffffffffffffffffffffffffffffffffff191614612676576040517f08c379a000000000000000000000000000000000000000000000000000000000815260040161266d90613667565b60405180910390fd5b505b505050505050565b60007f01ffc9a7000000000000000000000000000000000000000000000000000000007bffffffffffffffffffffffffffffffffffffffffffffffffffffffff1916827bffffffffffffffffffffffffffffffffffffffffffffffffffffffff1916149050919050565b600080823b905060008111915050919050565b6040518060a0016040528060608152602001600081526020016000815260200160006002811115612757577f4e487b7100000000000000000000000000000000000000000000000000000000600052602160045260246000fd5b815260200160006004811115612796577f4e487b7100000000000000000000000000000000000000000000000000000000600052602160045260246000fd5b81525090565b8280546127a890613bbd565b90600052602060002090601f0160209004810192826127ca5760008555612811565b82601f106127e357805160ff1916838001178555612811565b82800160010185558215612811579182015b828111156128105782518255916020019190600101906127f5565b5b50905061281e9190612822565b5090565b5b8082111561283b576000816000905550600101612823565b5090565b600061285261284d84613892565b61386d565b9050808382526020820190508285602086028201111561287157600080fd5b60005b858110156128a157816128878882612993565b845260208401935060208301925050600181019050612874565b5050509392505050565b60006128be6128b9846138be565b61386d565b905080838252602082019050828560208602820111156128dd57600080fd5b60005b8581101561290d57816128f38882612ace565b8452602084019350602083019250506001810190506128e0565b5050509392505050565b600061292a612925846138ea565b61386d565b90508281526020810184848401111561294257600080fd5b61294d848285613b51565b509392505050565b60006129686129638461391b565b61386d565b90508281526020810184848401111561298057600080fd5b61298b848285613b51565b509392505050565b6000813590506129a2816142ca565b92915050565b600082601f8301126129b957600080fd5b81356129c984826020860161283f565b91505092915050565b600082601f8301126129e357600080fd5b81356129f38482602086016128ab565b91505092915050565b600081359050612a0b816142e1565b92915050565b600081359050612a20816142f8565b92915050565b600081359050612a358161430f565b92915050565b600081519050612a4a8161430f565b92915050565b600082601f830112612a6157600080fd5b8135612a71848260208601612917565b91505092915050565b600081359050612a8981614326565b92915050565b600081359050612a9e81614336565b92915050565b600082601f830112612ab557600080fd5b8135612ac5848260208601612955565b91505092915050565b600081359050612add81614346565b92915050565b600060208284031215612af557600080fd5b6000612b0384828501612993565b91505092915050565b60008060408385031215612b1f57600080fd5b6000612b2d85828601612993565b9250506020612b3e85828601612993565b9150509250929050565b600080600080600060a08688031215612b6057600080fd5b6000612b6e88828901612993565b9550506020612b7f88828901612993565b945050604086013567ffffffffffffffff811115612b9c57600080fd5b612ba8888289016129d2565b935050606086013567ffffffffffffffff811115612bc557600080fd5b612bd1888289016129d2565b925050608086013567ffffffffffffffff811115612bee57600080fd5b612bfa88828901612a50565b9150509295509295909350565b600080600080600060a08688031215612c1f57600080fd5b6000612c2d88828901612993565b9550506020612c3e88828901612993565b9450506040612c4f88828901612ace565b9350506060612c6088828901612ace565b925050608086013567ffffffffffffffff811115612c7d57600080fd5b612c8988828901612a50565b9150509295509295909350565b60008060408385031215612ca957600080fd5b6000612cb785828601612993565b9250506020612cc8858286016129fc565b9150509250929050565b60008060008060008060c08789031215612ceb57600080fd5b6000612cf989828a01612993565b965050602087013567ffffffffffffffff811115612d1657600080fd5b612d2289828a01612aa4565b9550506040612d3389828a01612ace565b9450506060612d4489828a01612ace565b9350506080612d5589828a01612a7a565b92505060a0612d6689828a01612a8f565b9150509295509295509295565b60008060408385031215612d8657600080fd5b6000612d9485828601612993565b9250506020612da585828601612ace565b9150509250929050565b60008060408385031215612dc257600080fd5b600083013567ffffffffffffffff811115612ddc57600080fd5b612de8858286016129a8565b925050602083013567ffffffffffffffff811115612e0557600080fd5b612e11858286016129d2565b9150509250929050565b600060208284031215612e2d57600080fd5b6000612e3b84828501612a11565b91505092915050565b60008060408385031215612e5757600080fd5b6000612e6585828601612a11565b9250506020612e7685828601612993565b9150509250929050565b600060208284031215612e9257600080fd5b6000612ea084828501612a26565b91505092915050565b600060208284031215612ebb57600080fd5b6000612ec984828501612a3b565b91505092915050565b600060208284031215612ee457600080fd5b6000612ef284828501612ace565b91505092915050565b6000612f07838361337f565b60208301905092915050565b612f1c81613a89565b82525050565b6000612f2d8261395c565b612f37818561398a565b9350612f428361394c565b8060005b83811015612f73578151612f5a8882612efb565b9750612f658361397d565b925050600181019050612f46565b5085935050505092915050565b612f8981613a9b565b82525050565b612f9881613aa7565b82525050565b6000612fa982613967565b612fb3818561399b565b9350612fc3818560208601613b60565b612fcc81613d47565b840191505092915050565b612fe081613b2d565b82525050565b612fef81613b2d565b82525050565b612ffe81613b3f565b82525050565b61300d81613b3f565b82525050565b600061301e82613972565b61302881856139ac565b9350613038818560208601613b60565b61304181613d47565b840191505092915050565b600061305782613972565b61306181856139bd565b9350613071818560208601613b60565b61307a81613d47565b840191505092915050565b600061309082613972565b61309a81856139ce565b93506130aa818560208601613b60565b80840191505092915050565b60006130c36034836139bd565b91506130ce82613d65565b604082019050919050565b60006130e66020836139bd565b91506130f182613db4565b602082019050919050565b60006131096028836139bd565b915061311482613ddd565b604082019050919050565b600061312c602b836139bd565b915061313782613e2c565b604082019050919050565b600061314f6029836139bd565b915061315a82613e7b565b604082019050919050565b60006131726025836139bd565b915061317d82613eca565b604082019050919050565b60006131956032836139bd565b91506131a082613f19565b604082019050919050565b60006131b8602a836139bd565b91506131c382613f68565b604082019050919050565b60006131db6012836139bd565b91506131e682613fb7565b602082019050919050565b60006131fe6027836139bd565b915061320982613fe0565b604082019050919050565b60006132216017836139ce565b915061322c8261402f565b601782019050919050565b60006132446029836139bd565b915061324f82614058565b604082019050919050565b60006132676029836139bd565b9150613272826140a7565b604082019050919050565b600061328a6028836139bd565b9150613295826140f6565b604082019050919050565b60006132ad6021836139bd565b91506132b882614145565b604082019050919050565b60006132d06011836139ce565b91506132db82614194565b601182019050919050565b60006132f3602f836139bd565b91506132fe826141bd565b604082019050919050565b600060a08301600083015184820360008601526133268282613013565b915050602083015161333b602086018261337f565b50604083015161334e604086018261337f565b5060608301516133616060860182612fd7565b5060808301516133746080860182612ff5565b508091505092915050565b61338881613b23565b82525050565b61339781613b23565b82525050565b60006133a882613214565b91506133b48285613085565b91506133bf826132c3565b91506133cb8284613085565b91508190509392505050565b60006020820190506133ec6000830184612f13565b92915050565b600060a0820190506134076000830188612f13565b6134146020830187612f13565b81810360408301526134268186612f22565b9050818103606083015261343a8185612f22565b9050818103608083015261344e8184612f9e565b90509695505050505050565b600060a08201905061346f6000830188612f13565b61347c6020830187612f13565b613489604083018661338e565b613496606083018561338e565b81810360808301526134a88184612f9e565b90509695505050505050565b600060c0820190506134c96000830189612f13565b81810360208301526134db818861304c565b90506134ea604083018761338e565b6134f7606083018661338e565b6135046080830185612fe6565b61351160a0830184613004565b979650505050505050565b600060208201905081810360008301526135368184612f22565b905092915050565b600060408201905081810360008301526135588185612f22565b9050818103602083015261356c8184612f22565b90509392505050565b600060208201905061358a6000830184612f80565b92915050565b60006020820190506135a56000830184612f8f565b92915050565b600060208201905081810360008301526135c5818461304c565b905092915050565b600060a08201905081810360008301526135e7818861304c565b90506135f6602083018761338e565b613603604083018661338e565b6136106060830185612fe6565b61361d6080830184613004565b9695505050505050565b60006020820190508181036000830152613640816130b6565b9050919050565b60006020820190508181036000830152613660816130d9565b9050919050565b60006020820190508181036000830152613680816130fc565b9050919050565b600060208201905081810360008301526136a08161311f565b9050919050565b600060208201905081810360008301526136c081613142565b9050919050565b600060208201905081810360008301526136e081613165565b9050919050565b6000602082019050818103600083015261370081613188565b9050919050565b60006020820190508181036000830152613720816131ab565b9050919050565b60006020820190508181036000830152613740816131ce565b9050919050565b60006020820190508181036000830152613760816131f1565b9050919050565b6000602082019050818103600083015261378081613237565b9050919050565b600060208201905081810360008301526137a08161325a565b9050919050565b600060208201905081810360008301526137c08161327d565b9050919050565b600060208201905081810360008301526137e0816132a0565b9050919050565b60006020820190508181036000830152613800816132e6565b9050919050565b600060208201905081810360008301526138218184613309565b905092915050565b600060208201905061383e600083018461338e565b92915050565b6000604082019050613859600083018561338e565b613866602083018461338e565b9392505050565b6000613877613888565b90506138838282613bef565b919050565b6000604051905090565b600067ffffffffffffffff8211156138ad576138ac613cf6565b5b602082029050602081019050919050565b600067ffffffffffffffff8211156138d9576138d8613cf6565b5b602082029050602081019050919050565b600067ffffffffffffffff82111561390557613904613cf6565b5b61390e82613d47565b9050602081019050919050565b600067ffffffffffffffff82111561393657613935613cf6565b5b61393f82613d47565b9050602081019050919050565b6000819050602082019050919050565b600081519050919050565b600081519050919050565b600081519050919050565b6000602082019050919050565b600082825260208201905092915050565b600082825260208201905092915050565b600082825260208201905092915050565b600082825260208201905092915050565b600081905092915050565b60006139e482613b23565b91506139ef83613b23565b9250827fffffffffffffffffffffffffffffffffffffffffffffffffffffffffffffffff03821115613a2457613a23613c69565b5b828201905092915050565b6000613a3a82613b23565b9150613a4583613b23565b9250817fffffffffffffffffffffffffffffffffffffffffffffffffffffffffffffffff0483118215151615613a7e57613a7d613c69565b5b828202905092915050565b6000613a9482613b03565b9050919050565b60008115159050919050565b6000819050919050565b60007fffffffff0000000000000000000000000000000000000000000000000000000082169050919050565b6000819050613aeb826142a2565b919050565b6000819050613afe826142b6565b919050565b600073ffffffffffffffffffffffffffffffffffffffff82169050919050565b6000819050919050565b6000613b3882613add565b9050919050565b6000613b4a82613af0565b9050919050565b82818337600083830152505050565b60005b83811015613b7e578082015181840152602081019050613b63565b83811115613b8d576000848401525b50505050565b6000613b9e82613b23565b91506000821415613bb257613bb1613c69565b5b600182039050919050565b60006002820490506001821680613bd557607f821691505b60208210811415613be957613be8613cc7565b5b50919050565b613bf882613d47565b810181811067ffffffffffffffff82111715613c1757613c16613cf6565b5b80604052505050565b6000613c2b82613b23565b91507fffffffffffffffffffffffffffffffffffffffffffffffffffffffffffffffff821415613c5e57613c5d613c69565b5b600182019050919050565b7f4e487b7100000000000000000000000000000000000000000000000000000000600052601160045260246000fd5b7f4e487b7100000000000000000000000000000000000000000000000000000000600052602160045260246000fd5b7f4e487b7100000000000000000000000000000000000000000000000000000000600052602260045260246000fd5b7f4e487b7100000000000000000000000000000000000000000000000000000000600052604160045260246000fd5b600060033d1115613d445760046000803e613d41600051613d58565b90505b90565b6000601f19601f8301169050919050565b60008160e01c9050919050565b7f455243313135353a207472616e7366657220746f206e6f6e204552433131353560008201527f526563656976657220696d706c656d656e746572000000000000000000000000602082015250565b7f537472696e67733a20686578206c656e67746820696e73756666696369656e74600082015250565b7f455243313135353a204552433131353552656365697665722072656a6563746560008201527f6420746f6b656e73000000000000000000000000000000000000000000000000602082015250565b7f455243313135353a2062616c616e636520717565727920666f7220746865207a60008201527f65726f2061646472657373000000000000000000000000000000000000000000602082015250565b7f455243313135353a2063616c6c6572206973206e6f74206f776e6572206e6f7260008201527f20617070726f7665640000000000000000000000000000000000000000000000602082015250565b7f455243313135353a207472616e7366657220746f20746865207a65726f20616460008201527f6472657373000000000000000000000000000000000000000000000000000000602082015250565b7f455243313135353a207472616e736665722063616c6c6572206973206e6f742060008201527f6f776e6572206e6f7220617070726f7665640000000000000000000000000000602082015250565b7f455243313135353a20696e73756666696369656e742062616c616e636520666f60008201527f72207472616e7366657200000000000000000000000000000000000000000000602082015250565b7f43616c6c6572206973206e6f7420612068720000000000000000000000000000600082015250565b7f4f6e2074686520616464726573732065786973747320616c7265616479206f6e60008201527f6520667265616b00000000000000000000000000000000000000000000000000602082015250565b7f416363657373436f6e74726f6c3a206163636f756e7420000000000000000000600082015250565b7f455243313135353a2073657474696e6720617070726f76616c2073746174757360008201527f20666f722073656c660000000000000000000000000000000000000000000000602082015250565b7f455243313135353a206163636f756e747320616e6420696473206c656e67746860008201527f206d69736d617463680000000000000000000000000000000000000000000000602082015250565b7f455243313135353a2069647320616e6420616d6f756e7473206c656e6774682060008201527f6d69736d61746368000000000000000000000000000000000000000000000000602082015250565b7f455243313135353a206d696e7420746f20746865207a65726f2061646472657360008201527f7300000000000000000000000000000000000000000000000000000000000000602082015250565b7f206973206d697373696e6720726f6c6520000000000000000000000000000000600082015250565b7f416363657373436f6e74726f6c3a2063616e206f6e6c792072656e6f756e636560008201527f20726f6c657320666f722073656c660000000000000000000000000000000000602082015250565b600060443d101561421c5761429f565b614224613888565b60043d036004823e80513d602482011167ffffffffffffffff8211171561424c57505061429f565b808201805167ffffffffffffffff81111561426a575050505061429f565b80602083010160043d03850181111561428757505050505061429f565b61429682602001850186613bef565b82955050505050505b90565b600381106142b3576142b2613c98565b5b50565b600581106142c7576142c6613c98565b5b50565b6142d381613a89565b81146142de57600080fd5b50565b6142ea81613a9b565b81146142f557600080fd5b50565b61430181613aa7565b811461430c57600080fd5b50565b61431881613ab1565b811461432357600080fd5b50565b6003811061433357600080fd5b50565b6005811061434357600080fd5b50565b61434f81613b23565b811461435a57600080fd5b5056fea2646970667358221220cb6fd1d6c78919f470e534562e691049a7499e76888248d3bd28e759768af4c764736f6c63430008040033",
  "linkReferences": {},
  "deployedLinkReferences": {}
}