{
    "contractName": "Freaks",
    "abi": [
        {
            "inputs": [
                {
                    "internalType": "address",
                    "name": "hr",
                    "type": "address"
                },
                {
                    "internalType": "address",
                    "name": "financial",
                    "type": "address"
                }
            ],
            "stateMutability": "nonpayable",
            "type": "constructor"
        },
        {
            "anonymous": false,
            "inputs": [
                {
                    "indexed": true,
                    "internalType": "address",
                    "name": "account",
                    "type": "address"
                },
                {
                    "indexed": true,
                    "internalType": "address",
                    "name": "operator",
                    "type": "address"
                },
                {
                    "indexed": false,
                    "internalType": "bool",
                    "name": "approved",
                    "type": "bool"
                }
            ],
            "name": "ApprovalForAll",
            "type": "event"
        },
        {
            "anonymous": false,
            "inputs": [
                {
                    "indexed": true,
                    "internalType": "bytes32",
                    "name": "role",
                    "type": "bytes32"
                },
                {
                    "indexed": true,
                    "internalType": "bytes32",
                    "name": "previousAdminRole",
                    "type": "bytes32"
                },
                {
                    "indexed": true,
                    "internalType": "bytes32",
                    "name": "newAdminRole",
                    "type": "bytes32"
                }
            ],
            "name": "RoleAdminChanged",
            "type": "event"
        },
        {
            "anonymous": false,
            "inputs": [
                {
                    "indexed": true,
                    "internalType": "bytes32",
                    "name": "role",
                    "type": "bytes32"
                },
                {
                    "indexed": true,
                    "internalType": "address",
                    "name": "account",
                    "type": "address"
                },
                {
                    "indexed": true,
                    "internalType": "address",
                    "name": "sender",
                    "type": "address"
                }
            ],
            "name": "RoleGranted",
            "type": "event"
        },
        {
            "anonymous": false,
            "inputs": [
                {
                    "indexed": true,
                    "internalType": "bytes32",
                    "name": "role",
                    "type": "bytes32"
                },
                {
                    "indexed": true,
                    "internalType": "address",
                    "name": "account",
                    "type": "address"
                },
                {
                    "indexed": true,
                    "internalType": "address",
                    "name": "sender",
                    "type": "address"
                }
            ],
            "name": "RoleRevoked",
            "type": "event"
        },
        {
            "anonymous": false,
            "inputs": [
                {
                    "indexed": true,
                    "internalType": "address",
                    "name": "operator",
                    "type": "address"
                },
                {
                    "indexed": true,
                    "internalType": "address",
                    "name": "from",
                    "type": "address"
                },
                {
                    "indexed": true,
                    "internalType": "address",
                    "name": "to",
                    "type": "address"
                },
                {
                    "indexed": false,
                    "internalType": "uint256[]",
                    "name": "ids",
                    "type": "uint256[]"
                },
                {
                    "indexed": false,
                    "internalType": "uint256[]",
                    "name": "values",
                    "type": "uint256[]"
                }
            ],
            "name": "TransferBatch",
            "type": "event"
        },
        {
            "anonymous": false,
            "inputs": [
                {
                    "indexed": true,
                    "internalType": "address",
                    "name": "operator",
                    "type": "address"
                },
                {
                    "indexed": true,
                    "internalType": "address",
                    "name": "from",
                    "type": "address"
                },
                {
                    "indexed": true,
                    "internalType": "address",
                    "name": "to",
                    "type": "address"
                },
                {
                    "indexed": false,
                    "internalType": "uint256",
                    "name": "id",
                    "type": "uint256"
                },
                {
                    "indexed": false,
                    "internalType": "uint256",
                    "name": "value",
                    "type": "uint256"
                }
            ],
            "name": "TransferSingle",
            "type": "event"
        },
        {
            "anonymous": false,
            "inputs": [
                {
                    "indexed": false,
                    "internalType": "string",
                    "name": "value",
                    "type": "string"
                },
                {
                    "indexed": true,
                    "internalType": "uint256",
                    "name": "id",
                    "type": "uint256"
                }
            ],
            "name": "URI",
            "type": "event"
        },
        {
            "anonymous": false,
            "inputs": [
                {
                    "indexed": false,
                    "internalType": "string",
                    "name": "_name",
                    "type": "string"
                },
                {
                    "indexed": false,
                    "internalType": "enum Freaks.Role",
                    "name": "rol",
                    "type": "uint8"
                },
                {
                    "indexed": false,
                    "internalType": "enum Freaks.Skill",
                    "name": "skill",
                    "type": "uint8"
                },
                {
                    "indexed": false,
                    "internalType": "uint256",
                    "name": "startDate",
                    "type": "uint256"
                },
                {
                    "indexed": false,
                    "internalType": "uint256",
                    "name": "employeeNumber",
                    "type": "uint256"
                },
                {
                    "indexed": false,
                    "internalType": "address",
                    "name": "adresa",
                    "type": "address"
                }
            ],
            "name": "addedFreak",
            "type": "event"
        },
        {
            "anonymous": false,
            "inputs": [
                {
                    "indexed": false,
                    "internalType": "uint256",
                    "name": "employeeNumber",
                    "type": "uint256"
                },
                {
                    "indexed": false,
                    "internalType": "enum Freaks.Skill",
                    "name": "oldSkill",
                    "type": "uint8"
                },
                {
                    "indexed": false,
                    "internalType": "enum Freaks.Skill",
                    "name": "newSkill",
                    "type": "uint8"
                }
            ],
            "name": "freakPromoted",
            "type": "event"
        },
        {
            "anonymous": false,
            "inputs": [
                {
                    "indexed": false,
                    "internalType": "address",
                    "name": "_address",
                    "type": "address"
                },
                {
                    "indexed": false,
                    "internalType": "uint256",
                    "name": "employeeNumber",
                    "type": "uint256"
                }
            ],
            "name": "removedFreak",
            "type": "event"
        },
        {
            "inputs": [],
            "name": "DEFAULT_ADMIN_ROLE",
            "outputs": [
                {
                    "internalType": "bytes32",
                    "name": "",
                    "type": "bytes32"
                }
            ],
            "stateMutability": "view",
            "type": "function"
        },
        {
            "inputs": [],
            "name": "FINANCIAL_ROLE",
            "outputs": [
                {
                    "internalType": "bytes32",
                    "name": "",
                    "type": "bytes32"
                }
            ],
            "stateMutability": "view",
            "type": "function"
        },
        {
            "inputs": [],
            "name": "FREAK_ROLE",
            "outputs": [
                {
                    "internalType": "bytes32",
                    "name": "",
                    "type": "bytes32"
                }
            ],
            "stateMutability": "view",
            "type": "function"
        },
        {
            "inputs": [],
            "name": "HR_ROLE",
            "outputs": [
                {
                    "internalType": "bytes32",
                    "name": "",
                    "type": "bytes32"
                }
            ],
            "stateMutability": "view",
            "type": "function"
        },
        {
            "inputs": [
                {
                    "internalType": "string",
                    "name": "_name",
                    "type": "string"
                },
                {
                    "internalType": "enum Freaks.Role",
                    "name": "_rol",
                    "type": "uint8"
                },
                {
                    "internalType": "enum Freaks.Skill",
                    "name": "_skill",
                    "type": "uint8"
                },
                {
                    "internalType": "uint256",
                    "name": "_startDate",
                    "type": "uint256"
                },
                {
                    "internalType": "uint16",
                    "name": "_employeeNumber",
                    "type": "uint16"
                },
                {
                    "internalType": "address",
                    "name": "_adresa",
                    "type": "address"
                }
            ],
            "name": "addFreak",
            "outputs": [],
            "stateMutability": "nonpayable",
            "type": "function"
        },
        {
            "inputs": [
                {
                    "internalType": "address",
                    "name": "account",
                    "type": "address"
                },
                {
                    "internalType": "uint256",
                    "name": "id",
                    "type": "uint256"
                }
            ],
            "name": "balanceOf",
            "outputs": [
                {
                    "internalType": "uint256",
                    "name": "",
                    "type": "uint256"
                }
            ],
            "stateMutability": "view",
            "type": "function"
        },
        {
            "inputs": [
                {
                    "internalType": "address[]",
                    "name": "accounts",
                    "type": "address[]"
                },
                {
                    "internalType": "uint256[]",
                    "name": "ids",
                    "type": "uint256[]"
                }
            ],
            "name": "balanceOfBatch",
            "outputs": [
                {
                    "internalType": "uint256[]",
                    "name": "",
                    "type": "uint256[]"
                }
            ],
            "stateMutability": "view",
            "type": "function"
        },
        {
            "inputs": [
                {
                    "internalType": "address",
                    "name": "",
                    "type": "address"
                }
            ],
            "name": "freakStruct",
            "outputs": [
                {
                    "internalType": "string",
                    "name": "name",
                    "type": "string"
                },
                {
                    "internalType": "enum Freaks.Role",
                    "name": "rol",
                    "type": "uint8"
                },
                {
                    "internalType": "enum Freaks.Skill",
                    "name": "skill",
                    "type": "uint8"
                },
                {
                    "internalType": "uint256",
                    "name": "startDate",
                    "type": "uint256"
                },
                {
                    "internalType": "uint256",
                    "name": "stopDate",
                    "type": "uint256"
                },
                {
                    "internalType": "uint16",
                    "name": "employeeNumber",
                    "type": "uint16"
                }
            ],
            "stateMutability": "view",
            "type": "function"
        },
        {
            "inputs": [
                {
                    "internalType": "uint256",
                    "name": "",
                    "type": "uint256"
                }
            ],
            "name": "freaks",
            "outputs": [
                {
                    "internalType": "address",
                    "name": "",
                    "type": "address"
                }
            ],
            "stateMutability": "view",
            "type": "function"
        },
        {
            "inputs": [
                {
                    "internalType": "bytes32",
                    "name": "role",
                    "type": "bytes32"
                }
            ],
            "name": "getRoleAdmin",
            "outputs": [
                {
                    "internalType": "bytes32",
                    "name": "",
                    "type": "bytes32"
                }
            ],
            "stateMutability": "view",
            "type": "function"
        },
        {
            "inputs": [
                {
                    "internalType": "bytes32",
                    "name": "role",
                    "type": "bytes32"
                },
                {
                    "internalType": "address",
                    "name": "account",
                    "type": "address"
                }
            ],
            "name": "grantRole",
            "outputs": [],
            "stateMutability": "nonpayable",
            "type": "function"
        },
        {
            "inputs": [
                {
                    "internalType": "bytes32",
                    "name": "role",
                    "type": "bytes32"
                },
                {
                    "internalType": "address",
                    "name": "account",
                    "type": "address"
                }
            ],
            "name": "hasRole",
            "outputs": [
                {
                    "internalType": "bool",
                    "name": "",
                    "type": "bool"
                }
            ],
            "stateMutability": "view",
            "type": "function"
        },
        {
            "inputs": [
                {
                    "internalType": "address",
                    "name": "account",
                    "type": "address"
                },
                {
                    "internalType": "address",
                    "name": "operator",
                    "type": "address"
                }
            ],
            "name": "isApprovedForAll",
            "outputs": [
                {
                    "internalType": "bool",
                    "name": "",
                    "type": "bool"
                }
            ],
            "stateMutability": "view",
            "type": "function"
        },
        {
            "inputs": [
                {
                    "internalType": "address",
                    "name": "_adresa",
                    "type": "address"
                },
                {
                    "internalType": "enum Freaks.Skill",
                    "name": "_skill",
                    "type": "uint8"
                }
            ],
            "name": "promoteFreak",
            "outputs": [],
            "stateMutability": "nonpayable",
            "type": "function"
        },
        {
            "inputs": [
                {
                    "internalType": "address",
                    "name": "_adresa",
                    "type": "address"
                }
            ],
            "name": "removeFreak",
            "outputs": [],
            "stateMutability": "nonpayable",
            "type": "function"
        },
        {
            "inputs": [
                {
                    "internalType": "bytes32",
                    "name": "role",
                    "type": "bytes32"
                },
                {
                    "internalType": "address",
                    "name": "account",
                    "type": "address"
                }
            ],
            "name": "renounceRole",
            "outputs": [],
            "stateMutability": "nonpayable",
            "type": "function"
        },
        {
            "inputs": [
                {
                    "internalType": "bytes32",
                    "name": "role",
                    "type": "bytes32"
                },
                {
                    "internalType": "address",
                    "name": "account",
                    "type": "address"
                }
            ],
            "name": "revokeRole",
            "outputs": [],
            "stateMutability": "nonpayable",
            "type": "function"
        },
        {
            "inputs": [
                {
                    "internalType": "address",
                    "name": "from",
                    "type": "address"
                },
                {
                    "internalType": "address",
                    "name": "to",
                    "type": "address"
                },
                {
                    "internalType": "uint256[]",
                    "name": "ids",
                    "type": "uint256[]"
                },
                {
                    "internalType": "uint256[]",
                    "name": "amounts",
                    "type": "uint256[]"
                },
                {
                    "internalType": "bytes",
                    "name": "data",
                    "type": "bytes"
                }
            ],
            "name": "safeBatchTransferFrom",
            "outputs": [],
            "stateMutability": "nonpayable",
            "type": "function"
        },
        {
            "inputs": [
                {
                    "internalType": "address",
                    "name": "from",
                    "type": "address"
                },
                {
                    "internalType": "address",
                    "name": "to",
                    "type": "address"
                },
                {
                    "internalType": "uint256",
                    "name": "id",
                    "type": "uint256"
                },
                {
                    "internalType": "uint256",
                    "name": "amount",
                    "type": "uint256"
                },
                {
                    "internalType": "bytes",
                    "name": "data",
                    "type": "bytes"
                }
            ],
            "name": "safeTransferFrom",
            "outputs": [],
            "stateMutability": "nonpayable",
            "type": "function"
        },
        {
            "inputs": [
                {
                    "internalType": "address",
                    "name": "operator",
                    "type": "address"
                },
                {
                    "internalType": "bool",
                    "name": "approved",
                    "type": "bool"
                }
            ],
            "name": "setApprovalForAll",
            "outputs": [],
            "stateMutability": "nonpayable",
            "type": "function"
        },
        {
            "inputs": [
                {
                    "internalType": "bytes4",
                    "name": "interfaceId",
                    "type": "bytes4"
                }
            ],
            "name": "supportsInterface",
            "outputs": [
                {
                    "internalType": "bool",
                    "name": "",
                    "type": "bool"
                }
            ],
            "stateMutability": "view",
            "type": "function"
        },
        {
            "inputs": [
                {
                    "internalType": "uint256",
                    "name": "",
                    "type": "uint256"
                }
            ],
            "name": "uri",
            "outputs": [
                {
                    "internalType": "string",
                    "name": "",
                    "type": "string"
                }
            ],
            "stateMutability": "view",
            "type": "function"
        }
    ],
    "bytecode": "60806040523480156200001157600080fd5b5060405162002abe38038062002abe8339810160408190526200003491620002c6565b6040805160208101909152600081526200004e81620000e6565b506200005c600033620000ff565b6200007760008051602062002a9e83398151915283620000ff565b620000a37f5245999133c6d8d4571d82773bdec82e2a254d49eae8d487e9867b56643d733382620000ff565b620000de7f6b5fef62e5bc2370ac8da5f60f559eeb948e92965cc957d5211411a64d62e77760008051602062002a9e8339815191526200010b565b50506200033b565b8051620000fb90600290602084019062000203565b5050565b620000fb82826200015f565b600082815260036020526040902060010154819060405184907fbd79b86ffe0ab8e8776151514217cd7cacd52c909f66475c3af44e129f0b00ff90600090a460009182526003602052604090912060010155565b60008281526003602090815260408083206001600160a01b038516845290915290205460ff16620000fb5760008281526003602090815260408083206001600160a01b03851684529091529020805460ff19166001179055620001bf3390565b6001600160a01b0316816001600160a01b0316837f2f8788117e7eff1d82e926ec794901d17c78024a50270940304540a733656f0d60405160405180910390a45050565b8280546200021190620002fe565b90600052602060002090601f01602090048101928262000235576000855562000280565b82601f106200025057805160ff191683800117855562000280565b8280016001018555821562000280579182015b828111156200028057825182559160200191906001019062000263565b506200028e92915062000292565b5090565b5b808211156200028e576000815560010162000293565b80516001600160a01b0381168114620002c157600080fd5b919050565b60008060408385031215620002da57600080fd5b620002e583620002a9565b9150620002f560208401620002a9565b90509250929050565b600181811c908216806200031357607f821691505b602082108114156200033557634e487b7160e01b600052602260045260246000fd5b50919050565b612753806200034b6000396000f3fe608060405234801561001057600080fd5b50600436106101415760003560e01c8063a22cb465116100b8578063ca8061161161007c578063ca806116146102f8578063d547741f1461031f578063e985e9c514610332578063f1789e751461036e578063f242432a14610381578063f3c6a1981461039457600080fd5b8063a22cb46514610273578063b508513614610286578063bc0ce06e14610299578063bd678ba5146102be578063c7b59209146102e557600080fd5b80632f2ff15d1161010a5780632f2ff15d146101e757806336568abe146101fa5780634e1273f41461020d57806367e99e8a1461022d57806391d1485414610258578063a217fddf1461026b57600080fd5b8062fdd58e1461014657806301ffc9a71461016c5780630e89341c1461018f578063248a9ca3146101af5780632eb2c2d6146101d2575b600080fd5b610159610154366004611ed7565b6103a9565b6040519081526020015b60405180910390f35b61017f61017a36600461200e565b610440565b6040519015158152602001610163565b6101a261019d366004611fd2565b610451565b60405161016391906122d7565b6101596101bd366004611fd2565b60009081526003602052604090206001015490565b6101e56101e0366004611d62565b6104e5565b005b6101e56101f5366004611feb565b61057c565b6101e5610208366004611feb565b6105a7565b61022061021b366004611f01565b610625565b6040516101639190612296565b61024061023b366004611fd2565b61074f565b6040516001600160a01b039091168152602001610163565b61017f610266366004611feb565b610779565b610159600081565b6101e5610281366004611e71565b6107a4565b6101e5610294366004611ead565b61087b565b6102ac6102a7366004611d14565b610aa0565b60405161016396959493929190612343565b6101597f6b5fef62e5bc2370ac8da5f60f559eeb948e92965cc957d5211411a64d62e77781565b6101e56102f3366004611d14565b610b67565b6101597f5245999133c6d8d4571d82773bdec82e2a254d49eae8d487e9867b56643d733381565b6101e561032d366004611feb565b610cb6565b61017f610340366004611d2f565b6001600160a01b03918216600090815260016020908152604080832093909416825291909152205460ff1690565b6101e561037c366004612048565b610cdc565b6101e561038f366004611e0c565b610f75565b6101596000805160206126fe83398151915281565b60006001600160a01b03831661041a5760405162461bcd60e51b815260206004820152602b60248201527f455243313135353a2062616c616e636520717565727920666f7220746865207a60448201526a65726f206164647265737360a81b60648201526084015b60405180910390fd5b506000908152602081815260408083206001600160a01b03949094168352929052205490565b600061044b82610ffc565b92915050565b60606002805461046090612563565b80601f016020809104026020016040519081016040528092919081815260200182805461048c90612563565b80156104d95780601f106104ae576101008083540402835291602001916104d9565b820191906000526020600020905b8154815290600101906020018083116104bc57829003601f168201915b50505050509050919050565b6001600160a01b03851633148061050157506105018533610340565b6105685760405162461bcd60e51b815260206004820152603260248201527f455243313135353a207472616e736665722063616c6c6572206973206e6f74206044820152711bdddb995c881b9bdc88185c1c1c9bdd995960721b6064820152608401610411565b6105758585858585611021565b5050505050565b60008281526003602052604090206001015461059881336111f6565b6105a2838361125a565b505050565b6001600160a01b03811633146106175760405162461bcd60e51b815260206004820152602f60248201527f416363657373436f6e74726f6c3a2063616e206f6e6c792072656e6f756e636560448201526e103937b632b9903337b91039b2b63360891b6064820152608401610411565b61062182826112e0565b5050565b6060815183511461068a5760405162461bcd60e51b815260206004820152602960248201527f455243313135353a206163636f756e747320616e6420696473206c656e677468604482015268040dad2e6dac2e8c6d60bb1b6064820152608401610411565b6000835167ffffffffffffffff8111156106a6576106a6612628565b6040519080825280602002602001820160405280156106cf578160200160208202803683370190505b50905060005b84518110156107475761071a8582815181106106f3576106f3612612565b602002602001015185838151811061070d5761070d612612565b60200260200101516103a9565b82828151811061072c5761072c612612565b6020908102919091010152610740816125cb565b90506106d5565b509392505050565b6005818154811061075f57600080fd5b6000918252602090912001546001600160a01b0316905081565b60009182526003602090815260408084206001600160a01b0393909316845291905290205460ff1690565b336001600160a01b038316141561080f5760405162461bcd60e51b815260206004820152602960248201527f455243313135353a2073657474696e6720617070726f76616c20737461747573604482015268103337b91039b2b63360b91b6064820152608401610411565b3360008181526001602090815260408083206001600160a01b03871680855290835292819020805460ff191686151590811790915590519081529192917f17307eab39ab6107e8899845ad3d59bd9653f200f220920489ca2b5937696c31910160405180910390a35050565b6108936000805160206126fe83398151915233610779565b6108af5760405162461bcd60e51b8152600401610411906123db565b6001600160a01b038216600090815260046020526040902080546108d290612563565b151590506109485760405162461bcd60e51b815260206004820152603d60248201527f53612065786973746520467265616b2d756c2070652063617265207672656d2060448201527f73612d6c206d6f6469666963616d202873612061696261206e756d65290000006064820152608401610411565b6001600160a01b038216600090815260046020526040902060010154610100900460ff16600581111561097d5761097d6125fc565b81600581111561098f5761098f6125fc565b116109f35760405162461bcd60e51b815260206004820152602e60248201527f4e6f756c20736b696c6c207472656275696520736120666965206d616920627560448201526d6e2063612063656c20766563686960901b6064820152608401610411565b6001600160a01b0382166000908152600460205260409020600101805461010080820460ff16928492909161ff001990911690836005811115610a3857610a386125fc565b02179055506001600160a01b038316600090815260046020819052604091829020015490517ff9e0473da271539870c95a97efd66bc12f74c49d00e3ac398320138ee8627a5291610a939161ffff9091169084908690612494565b60405180910390a1505050565b600460205260009081526040902080548190610abb90612563565b80601f0160208091040260200160405190810160405280929190818152602001828054610ae790612563565b8015610b345780601f10610b0957610100808354040283529160200191610b34565b820191906000526020600020905b815481529060010190602001808311610b1757829003601f168201915b50505050600183015460028401546003850154600490950154939460ff80841695610100909404169350909161ffff1686565b610b7f6000805160206126fe83398151915233610779565b610b9b5760405162461bcd60e51b8152600401610411906123db565b6001600160a01b038116600090815260046020819052604082200154610bc690839061ffff166103a9565b11610c275760405162461bcd60e51b815260206004820152602b60248201527f416472657361207472656275696520736120636f6e74696e612063656c20707560448201526a3a34b71018903a37b5b2b760a91b6064820152608401610411565b6001600160a01b03811660009081526004602081905260409091200154610c5590829061ffff166001611347565b6001600160a01b03811660008181526004602081815260409283902042600382015590910154825193845261ffff16908301527f17017664ad03a79b44024bf9f57a6d869a39fd7043e762ad68fc1671b4ab6e9f910160405180910390a150565b600082815260036020526040902060010154610cd281336111f6565b6105a283836112e0565b610cf46000805160206126fe83398151915233610779565b610d105760405162461bcd60e51b8152600401610411906123db565b6001600160a01b0381166000908152600460208190526040909120015461ffff1615610dca5760405162461bcd60e51b815260206004820152606060248201527f656d706c6f7965654e756d62657220747265627569652073612066696520646560448201527f6661756c742c206361207361206e7520736520706f617461206164617567612060648201527f706573746520756e20616c7420467265616b2064656a61206578697374656e74608482015260a401610411565b610df47f6b5fef62e5bc2370ac8da5f60f559eeb948e92965cc957d5211411a64d62e7778261057c565b60058054600181019091557f036b6384b5eca791c62761152d0c79bb0604c104a5fb6f4eb0703f3154bb3db00180546001600160a01b0319166001600160a01b03831690811790915560009081526004602090815260409091208751610e5c92890190611b5b565b506001600160a01b038116600090815260046020526040902060019081018054879260ff19909116908381811115610e9657610e966125fc565b02179055506001600160a01b0381166000908152600460205260409020600101805485919061ff001916610100836005811115610ed557610ed56125fc565b02179055506001600160a01b0381166000908152600460208190526040918290206002810186905501805461ffff191661ffff8516179055517f3ae45bae526b01fc51566fbb978c794c73d8d0cb907d639c2c1d9ca62edebe2090610f45908890889088908890889088906122ea565b60405180910390a1610f6d818361ffff166001604051806020016040528060008152506114c1565b505050505050565b6001600160a01b038516331480610f915750610f918533610340565b610fef5760405162461bcd60e51b815260206004820152602960248201527f455243313135353a2063616c6c6572206973206e6f74206f776e6572206e6f7260448201526808185c1c1c9bdd995960ba1b6064820152608401610411565b61057585858585856115cb565b60006001600160e01b03198216637965db0b60e01b148061044b575061044b826116e8565b81518351146110835760405162461bcd60e51b815260206004820152602860248201527f455243313135353a2069647320616e6420616d6f756e7473206c656e677468206044820152670dad2e6dac2e8c6d60c31b6064820152608401610411565b6001600160a01b0384166110a95760405162461bcd60e51b815260040161041190612405565b3360005b84518110156111905760008582815181106110ca576110ca612612565b6020026020010151905060008583815181106110e8576110e8612612565b602090810291909101810151600084815280835260408082206001600160a01b038e1683529093529190912054909150818110156111385760405162461bcd60e51b81526004016104119061244a565b6000838152602081815260408083206001600160a01b038e8116855292528083208585039055908b168252812080548492906111759084906124e5565b9250508190555050505080611189906125cb565b90506110ad565b50846001600160a01b0316866001600160a01b0316826001600160a01b03167f4a39dc06d4c0dbc64b70af90fd698a233a518aa5d07e595d983b8c0526c8f7fb87876040516111e09291906122a9565b60405180910390a4610f6d818787878787611738565b6112008282610779565b61062157611218816001600160a01b031660146118a3565b6112238360206118a3565b60405160200161123492919061217e565b60408051601f198184030181529082905262461bcd60e51b8252610411916004016122d7565b6112648282610779565b6106215760008281526003602090815260408083206001600160a01b03851684529091529020805460ff1916600117905561129c3390565b6001600160a01b0316816001600160a01b0316837f2f8788117e7eff1d82e926ec794901d17c78024a50270940304540a733656f0d60405160405180910390a45050565b6112ea8282610779565b156106215760008281526003602090815260408083206001600160a01b0385168085529252808320805460ff1916905551339285917ff6391f5c32d9c69d2a47ea670b442974b53935d1edc7fd64eb21e047a839171b9190a45050565b6001600160a01b0383166113a95760405162461bcd60e51b815260206004820152602360248201527f455243313135353a206275726e2066726f6d20746865207a65726f206164647260448201526265737360e81b6064820152608401610411565b336113d9818560006113ba87611a46565b6113c387611a46565b5050604080516020810190915260009052505050565b6000838152602081815260408083206001600160a01b0388168452909152902054828110156114565760405162461bcd60e51b8152602060048201526024808201527f455243313135353a206275726e20616d6f756e7420657863656564732062616c604482015263616e636560e01b6064820152608401610411565b6000848152602081815260408083206001600160a01b03898116808652918452828520888703905582518981529384018890529092908616917fc3d58168c5ae7397731d063d5bbf3d657854427343f4c083240f7aacaa2d0f62910160405180910390a45050505050565b6001600160a01b0384166115215760405162461bcd60e51b815260206004820152602160248201527f455243313135353a206d696e7420746f20746865207a65726f206164647265736044820152607360f81b6064820152608401610411565b3361153b8160008761153288611a46565b61057588611a46565b6000848152602081815260408083206001600160a01b03891684529091528120805485929061156b9084906124e5565b909155505060408051858152602081018590526001600160a01b0380881692600092918516917fc3d58168c5ae7397731d063d5bbf3d657854427343f4c083240f7aacaa2d0f62910160405180910390a461057581600087878787611a91565b6001600160a01b0384166115f15760405162461bcd60e51b815260040161041190612405565b3361160181878761153288611a46565b6000848152602081815260408083206001600160a01b038a168452909152902054838110156116425760405162461bcd60e51b81526004016104119061244a565b6000858152602081815260408083206001600160a01b038b811685529252808320878503905590881682528120805486929061167f9084906124e5565b909155505060408051868152602081018690526001600160a01b03808916928a821692918616917fc3d58168c5ae7397731d063d5bbf3d657854427343f4c083240f7aacaa2d0f62910160405180910390a46116df828888888888611a91565b50505050505050565b60006001600160e01b03198216636cdb3d1360e11b148061171957506001600160e01b031982166303a24d0760e21b145b8061044b57506301ffc9a760e01b6001600160e01b031983161461044b565b6001600160a01b0384163b15610f6d5760405163bc197c8160e01b81526001600160a01b0385169063bc197c819061177c90899089908890889088906004016121f3565b602060405180830381600087803b15801561179657600080fd5b505af19250505080156117c6575060408051601f3d908101601f191682019092526117c39181019061202b565b60015b611873576117d261263e565b806308c379a0141561180c57506117e761265a565b806117f2575061180e565b8060405162461bcd60e51b815260040161041191906122d7565b505b60405162461bcd60e51b815260206004820152603460248201527f455243313135353a207472616e7366657220746f206e6f6e20455243313135356044820152732932b1b2b4bb32b91034b6b83632b6b2b73a32b960611b6064820152608401610411565b6001600160e01b0319811663bc197c8160e01b146116df5760405162461bcd60e51b815260040161041190612393565b606060006118b28360026124fd565b6118bd9060026124e5565b67ffffffffffffffff8111156118d5576118d5612628565b6040519080825280601f01601f1916602001820160405280156118ff576020820181803683370190505b509050600360fc1b8160008151811061191a5761191a612612565b60200101906001600160f81b031916908160001a905350600f60fb1b8160018151811061194957611949612612565b60200101906001600160f81b031916908160001a905350600061196d8460026124fd565b6119789060016124e5565b90505b60018111156119f0576f181899199a1a9b1b9c1cb0b131b232b360811b85600f16601081106119ac576119ac612612565b1a60f81b8282815181106119c2576119c2612612565b60200101906001600160f81b031916908160001a90535060049490941c936119e98161254c565b905061197b565b508315611a3f5760405162461bcd60e51b815260206004820181905260248201527f537472696e67733a20686578206c656e67746820696e73756666696369656e746044820152606401610411565b9392505050565b60408051600180825281830190925260609160009190602080830190803683370190505090508281600081518110611a8057611a80612612565b602090810291909101015292915050565b6001600160a01b0384163b15610f6d5760405163f23a6e6160e01b81526001600160a01b0385169063f23a6e6190611ad59089908990889088908890600401612251565b602060405180830381600087803b158015611aef57600080fd5b505af1925050508015611b1f575060408051601f3d908101601f19168201909252611b1c9181019061202b565b60015b611b2b576117d261263e565b6001600160e01b0319811663f23a6e6160e01b146116df5760405162461bcd60e51b815260040161041190612393565b828054611b6790612563565b90600052602060002090601f016020900481019282611b895760008555611bcf565b82601f10611ba257805160ff1916838001178555611bcf565b82800160010185558215611bcf579182015b82811115611bcf578251825591602001919060010190611bb4565b50611bdb929150611bdf565b5090565b5b80821115611bdb5760008155600101611be0565b600067ffffffffffffffff831115611c0e57611c0e612628565b604051611c25601f8501601f19166020018261259e565b809150838152848484011115611c3a57600080fd5b83836020830137600060208583010152509392505050565b80356001600160a01b0381168114611c6957600080fd5b919050565b600082601f830112611c7f57600080fd5b81356020611c8c826124c1565b604051611c99828261259e565b8381528281019150858301600585901b87018401881015611cb957600080fd5b60005b85811015611cd857813584529284019290840190600101611cbc565b5090979650505050505050565b600082601f830112611cf657600080fd5b611a3f83833560208501611bf4565b803560068110611c6957600080fd5b600060208284031215611d2657600080fd5b611a3f82611c52565b60008060408385031215611d4257600080fd5b611d4b83611c52565b9150611d5960208401611c52565b90509250929050565b600080600080600060a08688031215611d7a57600080fd5b611d8386611c52565b9450611d9160208701611c52565b9350604086013567ffffffffffffffff80821115611dae57600080fd5b611dba89838a01611c6e565b94506060880135915080821115611dd057600080fd5b611ddc89838a01611c6e565b93506080880135915080821115611df257600080fd5b50611dff88828901611ce5565b9150509295509295909350565b600080600080600060a08688031215611e2457600080fd5b611e2d86611c52565b9450611e3b60208701611c52565b93506040860135925060608601359150608086013567ffffffffffffffff811115611e6557600080fd5b611dff88828901611ce5565b60008060408385031215611e8457600080fd5b611e8d83611c52565b915060208301358015158114611ea257600080fd5b809150509250929050565b60008060408385031215611ec057600080fd5b611ec983611c52565b9150611d5960208401611d05565b60008060408385031215611eea57600080fd5b611ef383611c52565b946020939093013593505050565b60008060408385031215611f1457600080fd5b823567ffffffffffffffff80821115611f2c57600080fd5b818501915085601f830112611f4057600080fd5b81356020611f4d826124c1565b604051611f5a828261259e565b8381528281019150858301600585901b870184018b1015611f7a57600080fd5b600096505b84871015611fa457611f9081611c52565b835260019690960195918301918301611f7f565b5096505086013592505080821115611fbb57600080fd5b50611fc885828601611c6e565b9150509250929050565b600060208284031215611fe457600080fd5b5035919050565b60008060408385031215611ffe57600080fd5b82359150611d5960208401611c52565b60006020828403121561202057600080fd5b8135611a3f816126e4565b60006020828403121561203d57600080fd5b8151611a3f816126e4565b60008060008060008060c0878903121561206157600080fd5b863567ffffffffffffffff81111561207857600080fd5b8701601f8101891361208957600080fd5b61209889823560208401611bf4565b9650506020870135600281106120ad57600080fd5b94506120bb60408801611d05565b935060608701359250608087013561ffff811681146120d957600080fd5b91506120e760a08801611c52565b90509295509295509295565b600081518084526020808501945080840160005b8381101561212357815187529582019590820190600101612107565b509495945050505050565b6000815180845261214681602086016020860161251c565b601f01601f19169290920160200192915050565b6002811061216a5761216a6125fc565b9052565b6006811061216a5761216a6125fc565b7f416363657373436f6e74726f6c3a206163636f756e74200000000000000000008152600083516121b681601785016020880161251c565b7001034b99036b4b9b9b4b733903937b6329607d1b60179184019182015283516121e781602884016020880161251c565b01602801949350505050565b6001600160a01b0386811682528516602082015260a06040820181905260009061221f908301866120f3565b828103606084015261223181866120f3565b90508281036080840152612245818561212e565b98975050505050505050565b6001600160a01b03868116825285166020820152604081018490526060810183905260a06080820181905260009061228b9083018461212e565b979650505050505050565b602081526000611a3f60208301846120f3565b6040815260006122bc60408301856120f3565b82810360208401526122ce81856120f3565b95945050505050565b602081526000611a3f602083018461212e565b60c0815260006122fd60c083018961212e565b905061230c602083018861215a565b612319604083018761216e565b606082019490945261ffff9290921660808301526001600160a01b031660a0909101529392505050565b60c08152600061235660c083018961212e565b9050612365602083018861215a565b612372604083018761216e565b84606083015283608083015261ffff831660a0830152979650505050505050565b60208082526028908201527f455243313135353a204552433131353552656365697665722072656a656374656040820152676420746f6b656e7360c01b606082015260800190565b60208082526010908201526f21b0b63632b91034b9903737ba10242960811b604082015260600190565b60208082526025908201527f455243313135353a207472616e7366657220746f20746865207a65726f206164604082015264647265737360d81b606082015260800190565b6020808252602a908201527f455243313135353a20696e73756666696369656e742062616c616e636520666f60408201526939103a3930b739b332b960b11b606082015260800190565b61ffff84168152606081016124ac602083018561216e565b6124b9604083018461216e565b949350505050565b600067ffffffffffffffff8211156124db576124db612628565b5060051b60200190565b600082198211156124f8576124f86125e6565b500190565b6000816000190483118215151615612517576125176125e6565b500290565b60005b8381101561253757818101518382015260200161251f565b83811115612546576000848401525b50505050565b60008161255b5761255b6125e6565b506000190190565b600181811c9082168061257757607f821691505b6020821081141561259857634e487b7160e01b600052602260045260246000fd5b50919050565b601f8201601f1916810167ffffffffffffffff811182821017156125c4576125c4612628565b6040525050565b60006000198214156125df576125df6125e6565b5060010190565b634e487b7160e01b600052601160045260246000fd5b634e487b7160e01b600052602160045260246000fd5b634e487b7160e01b600052603260045260246000fd5b634e487b7160e01b600052604160045260246000fd5b600060033d11156126575760046000803e5060005160e01c5b90565b600060443d10156126685790565b6040516003193d81016004833e81513d67ffffffffffffffff816024840111818411171561269857505050505090565b82850191508151818111156126b05750505050505090565b843d87010160208285010111156126ca5750505050505090565b6126d96020828601018761259e565b509095945050505050565b6001600160e01b0319811681146126fa57600080fd5b5056fefd70517941c75212b0f9013e45c47a37d6d983c5304288c7af285f2ea40cbba7a26469706673582212207c2e01be65f9cec0f8d30e305e15981f2dde165037c14923d50ec333acbf82b764736f6c63430008060033fd70517941c75212b0f9013e45c47a37d6d983c5304288c7af285f2ea40cbba7",
    "sourcePath": "/home/eduardioo/Documents/Git/FreaksCatalog-Blockchain/contracts/Freaks.sol",
    "compiler": {
        "name": "solc",
        "version": "0.8.6+commit.11564f7e"
    },
    "functionHashes": {
        "DEFAULT_ADMIN_ROLE()": "a217fddf",
        "FINANCIAL_ROLE()": "ca806116",
        "FREAK_ROLE()": "bd678ba5",
        "HR_ROLE()": "f3c6a198",
        "addFreak(string,uint8,uint8,uint256,uint16,address)": "f1789e75",
        "balanceOf(address,uint256)": "00fdd58e",
        "balanceOfBatch(address[],uint256[])": "4e1273f4",
        "freakStruct(address)": "bc0ce06e",
        "freaks(uint256)": "67e99e8a",
        "getRoleAdmin(bytes32)": "248a9ca3",
        "grantRole(bytes32,address)": "2f2ff15d",
        "hasRole(bytes32,address)": "91d14854",
        "isApprovedForAll(address,address)": "e985e9c5",
        "promoteFreak(address,uint8)": "b5085136",
        "removeFreak(address)": "c7b59209",
        "renounceRole(bytes32,address)": "36568abe",
        "revokeRole(bytes32,address)": "d547741f",
        "safeBatchTransferFrom(address,address,uint256[],uint256[],bytes)": "2eb2c2d6",
        "safeTransferFrom(address,address,uint256,uint256,bytes)": "f242432a",
        "setApprovalForAll(address,bool)": "a22cb465",
        "supportsInterface(bytes4)": "01ffc9a7",
        "uri(uint256)": "0e89341c"
    },
    "gasEstimates": {
        "creation": {
            "codeDepositCost": "2013400",
            "executionCost": "infinite",
            "totalCost": "infinite"
        },
        "external": {
            "DEFAULT_ADMIN_ROLE()": "317",
            "FINANCIAL_ROLE()": "206",
            "FREAK_ROLE()": "273",
            "HR_ROLE()": "infinite",
            "addFreak(string,uint8,uint8,uint256,uint16,address)": "infinite",
            "balanceOf(address,uint256)": "2695",
            "balanceOfBatch(address[],uint256[])": "infinite",
            "freakStruct(address)": "infinite",
            "freaks(uint256)": "4703",
            "getRoleAdmin(bytes32)": "2523",
            "grantRole(bytes32,address)": "infinite",
            "hasRole(bytes32,address)": "2776",
            "isApprovedForAll(address,address)": "infinite",
            "promoteFreak(address,uint8)": "infinite",
            "removeFreak(address)": "infinite",
            "renounceRole(bytes32,address)": "29046",
            "revokeRole(bytes32,address)": "infinite",
            "safeBatchTransferFrom(address,address,uint256[],uint256[],bytes)": "infinite",
            "safeTransferFrom(address,address,uint256,uint256,bytes)": "infinite",
            "setApprovalForAll(address,bool)": "26651",
            "supportsInterface(bytes4)": "infinite",
            "uri(uint256)": "infinite"
        }
    }
}