{
    "contractName": "Freaks",
    "abi": [
        {
            "inputs": [
                {
                    "internalType": "address",
                    "name": "hr",
                    "type": "address"
                },
                {
                    "internalType": "address",
                    "name": "financial",
                    "type": "address"
                }
            ],
            "stateMutability": "nonpayable",
            "type": "constructor"
        },
        {
            "anonymous": false,
            "inputs": [
                {
                    "indexed": true,
                    "internalType": "address",
                    "name": "account",
                    "type": "address"
                },
                {
                    "indexed": true,
                    "internalType": "address",
                    "name": "operator",
                    "type": "address"
                },
                {
                    "indexed": false,
                    "internalType": "bool",
                    "name": "approved",
                    "type": "bool"
                }
            ],
            "name": "ApprovalForAll",
            "type": "event"
        },
        {
            "anonymous": false,
            "inputs": [
                {
                    "indexed": true,
                    "internalType": "bytes32",
                    "name": "role",
                    "type": "bytes32"
                },
                {
                    "indexed": true,
                    "internalType": "bytes32",
                    "name": "previousAdminRole",
                    "type": "bytes32"
                },
                {
                    "indexed": true,
                    "internalType": "bytes32",
                    "name": "newAdminRole",
                    "type": "bytes32"
                }
            ],
            "name": "RoleAdminChanged",
            "type": "event"
        },
        {
            "anonymous": false,
            "inputs": [
                {
                    "indexed": true,
                    "internalType": "bytes32",
                    "name": "role",
                    "type": "bytes32"
                },
                {
                    "indexed": true,
                    "internalType": "address",
                    "name": "account",
                    "type": "address"
                },
                {
                    "indexed": true,
                    "internalType": "address",
                    "name": "sender",
                    "type": "address"
                }
            ],
            "name": "RoleGranted",
            "type": "event"
        },
        {
            "anonymous": false,
            "inputs": [
                {
                    "indexed": true,
                    "internalType": "bytes32",
                    "name": "role",
                    "type": "bytes32"
                },
                {
                    "indexed": true,
                    "internalType": "address",
                    "name": "account",
                    "type": "address"
                },
                {
                    "indexed": true,
                    "internalType": "address",
                    "name": "sender",
                    "type": "address"
                }
            ],
            "name": "RoleRevoked",
            "type": "event"
        },
        {
            "anonymous": false,
            "inputs": [
                {
                    "indexed": true,
                    "internalType": "address",
                    "name": "operator",
                    "type": "address"
                },
                {
                    "indexed": true,
                    "internalType": "address",
                    "name": "from",
                    "type": "address"
                },
                {
                    "indexed": true,
                    "internalType": "address",
                    "name": "to",
                    "type": "address"
                },
                {
                    "indexed": false,
                    "internalType": "uint256[]",
                    "name": "ids",
                    "type": "uint256[]"
                },
                {
                    "indexed": false,
                    "internalType": "uint256[]",
                    "name": "values",
                    "type": "uint256[]"
                }
            ],
            "name": "TransferBatch",
            "type": "event"
        },
        {
            "anonymous": false,
            "inputs": [
                {
                    "indexed": true,
                    "internalType": "address",
                    "name": "operator",
                    "type": "address"
                },
                {
                    "indexed": true,
                    "internalType": "address",
                    "name": "from",
                    "type": "address"
                },
                {
                    "indexed": true,
                    "internalType": "address",
                    "name": "to",
                    "type": "address"
                },
                {
                    "indexed": false,
                    "internalType": "uint256",
                    "name": "id",
                    "type": "uint256"
                },
                {
                    "indexed": false,
                    "internalType": "uint256",
                    "name": "value",
                    "type": "uint256"
                }
            ],
            "name": "TransferSingle",
            "type": "event"
        },
        {
            "anonymous": false,
            "inputs": [
                {
                    "indexed": false,
                    "internalType": "string",
                    "name": "value",
                    "type": "string"
                },
                {
                    "indexed": true,
                    "internalType": "uint256",
                    "name": "id",
                    "type": "uint256"
                }
            ],
            "name": "URI",
            "type": "event"
        },
        {
            "anonymous": false,
            "inputs": [
                {
                    "indexed": false,
                    "internalType": "string",
                    "name": "_name",
                    "type": "string"
                },
                {
                    "indexed": false,
                    "internalType": "enum Freaks.Role",
                    "name": "rol",
                    "type": "uint8"
                },
                {
                    "indexed": false,
                    "internalType": "enum Freaks.Skill",
                    "name": "skill",
                    "type": "uint8"
                },
                {
                    "indexed": false,
                    "internalType": "uint256",
                    "name": "startDate",
                    "type": "uint256"
                },
                {
                    "indexed": false,
                    "internalType": "uint256",
                    "name": "employeeNumber",
                    "type": "uint256"
                },
                {
                    "indexed": false,
                    "internalType": "address",
                    "name": "adresa",
                    "type": "address"
                }
            ],
            "name": "addedFreak",
            "type": "event"
        },
        {
            "anonymous": false,
            "inputs": [
                {
                    "indexed": false,
                    "internalType": "address",
                    "name": "_address",
                    "type": "address"
                },
                {
                    "indexed": false,
                    "internalType": "uint256",
                    "name": "employeeNumber",
                    "type": "uint256"
                }
            ],
            "name": "removedFreak",
            "type": "event"
        },
        {
            "inputs": [],
            "name": "DEFAULT_ADMIN_ROLE",
            "outputs": [
                {
                    "internalType": "bytes32",
                    "name": "",
                    "type": "bytes32"
                }
            ],
            "stateMutability": "view",
            "type": "function"
        },
        {
            "inputs": [],
            "name": "FINANCIAL_ROLE",
            "outputs": [
                {
                    "internalType": "bytes32",
                    "name": "",
                    "type": "bytes32"
                }
            ],
            "stateMutability": "view",
            "type": "function"
        },
        {
            "inputs": [],
            "name": "FREAK_ROLE",
            "outputs": [
                {
                    "internalType": "bytes32",
                    "name": "",
                    "type": "bytes32"
                }
            ],
            "stateMutability": "view",
            "type": "function"
        },
        {
            "inputs": [],
            "name": "HR_ROLE",
            "outputs": [
                {
                    "internalType": "bytes32",
                    "name": "",
                    "type": "bytes32"
                }
            ],
            "stateMutability": "view",
            "type": "function"
        },
        {
            "inputs": [
                {
                    "internalType": "string",
                    "name": "_name",
                    "type": "string"
                },
                {
                    "internalType": "enum Freaks.Role",
                    "name": "_rol",
                    "type": "uint8"
                },
                {
                    "internalType": "enum Freaks.Skill",
                    "name": "_skill",
                    "type": "uint8"
                },
                {
                    "internalType": "uint256",
                    "name": "_startDate",
                    "type": "uint256"
                },
                {
                    "internalType": "uint16",
                    "name": "_employeeNumber",
                    "type": "uint16"
                },
                {
                    "internalType": "address",
                    "name": "_adresa",
                    "type": "address"
                }
            ],
            "name": "addFreak",
            "outputs": [],
            "stateMutability": "nonpayable",
            "type": "function"
        },
        {
            "inputs": [
                {
                    "internalType": "address",
                    "name": "account",
                    "type": "address"
                },
                {
                    "internalType": "uint256",
                    "name": "id",
                    "type": "uint256"
                }
            ],
            "name": "balanceOf",
            "outputs": [
                {
                    "internalType": "uint256",
                    "name": "",
                    "type": "uint256"
                }
            ],
            "stateMutability": "view",
            "type": "function"
        },
        {
            "inputs": [
                {
                    "internalType": "address[]",
                    "name": "accounts",
                    "type": "address[]"
                },
                {
                    "internalType": "uint256[]",
                    "name": "ids",
                    "type": "uint256[]"
                }
            ],
            "name": "balanceOfBatch",
            "outputs": [
                {
                    "internalType": "uint256[]",
                    "name": "",
                    "type": "uint256[]"
                }
            ],
            "stateMutability": "view",
            "type": "function"
        },
        {
            "inputs": [
                {
                    "internalType": "address",
                    "name": "",
                    "type": "address"
                }
            ],
            "name": "freakStruct",
            "outputs": [
                {
                    "internalType": "string",
                    "name": "name",
                    "type": "string"
                },
                {
                    "internalType": "enum Freaks.Role",
                    "name": "rol",
                    "type": "uint8"
                },
                {
                    "internalType": "enum Freaks.Skill",
                    "name": "skill",
                    "type": "uint8"
                },
                {
                    "internalType": "uint256",
                    "name": "startDate",
                    "type": "uint256"
                },
                {
                    "internalType": "uint256",
                    "name": "stopDate",
                    "type": "uint256"
                },
                {
                    "internalType": "uint16",
                    "name": "employeeNumber",
                    "type": "uint16"
                }
            ],
            "stateMutability": "view",
            "type": "function"
        },
        {
            "inputs": [
                {
                    "internalType": "uint256",
                    "name": "",
                    "type": "uint256"
                }
            ],
            "name": "freaks",
            "outputs": [
                {
                    "internalType": "address",
                    "name": "",
                    "type": "address"
                }
            ],
            "stateMutability": "view",
            "type": "function"
        },
        {
            "inputs": [
                {
                    "internalType": "bytes32",
                    "name": "role",
                    "type": "bytes32"
                }
            ],
            "name": "getRoleAdmin",
            "outputs": [
                {
                    "internalType": "bytes32",
                    "name": "",
                    "type": "bytes32"
                }
            ],
            "stateMutability": "view",
            "type": "function"
        },
        {
            "inputs": [
                {
                    "internalType": "bytes32",
                    "name": "role",
                    "type": "bytes32"
                },
                {
                    "internalType": "address",
                    "name": "account",
                    "type": "address"
                }
            ],
            "name": "grantRole",
            "outputs": [],
            "stateMutability": "nonpayable",
            "type": "function"
        },
        {
            "inputs": [
                {
                    "internalType": "bytes32",
                    "name": "role",
                    "type": "bytes32"
                },
                {
                    "internalType": "address",
                    "name": "account",
                    "type": "address"
                }
            ],
            "name": "hasRole",
            "outputs": [
                {
                    "internalType": "bool",
                    "name": "",
                    "type": "bool"
                }
            ],
            "stateMutability": "view",
            "type": "function"
        },
        {
            "inputs": [
                {
                    "internalType": "address",
                    "name": "account",
                    "type": "address"
                },
                {
                    "internalType": "address",
                    "name": "operator",
                    "type": "address"
                }
            ],
            "name": "isApprovedForAll",
            "outputs": [
                {
                    "internalType": "bool",
                    "name": "",
                    "type": "bool"
                }
            ],
            "stateMutability": "view",
            "type": "function"
        },
        {
            "inputs": [
                {
                    "internalType": "address",
                    "name": "_adresa",
                    "type": "address"
                }
            ],
            "name": "removeFreak",
            "outputs": [],
            "stateMutability": "nonpayable",
            "type": "function"
        },
        {
            "inputs": [
                {
                    "internalType": "bytes32",
                    "name": "role",
                    "type": "bytes32"
                },
                {
                    "internalType": "address",
                    "name": "account",
                    "type": "address"
                }
            ],
            "name": "renounceRole",
            "outputs": [],
            "stateMutability": "nonpayable",
            "type": "function"
        },
        {
            "inputs": [
                {
                    "internalType": "bytes32",
                    "name": "role",
                    "type": "bytes32"
                },
                {
                    "internalType": "address",
                    "name": "account",
                    "type": "address"
                }
            ],
            "name": "revokeRole",
            "outputs": [],
            "stateMutability": "nonpayable",
            "type": "function"
        },
        {
            "inputs": [
                {
                    "internalType": "address",
                    "name": "from",
                    "type": "address"
                },
                {
                    "internalType": "address",
                    "name": "to",
                    "type": "address"
                },
                {
                    "internalType": "uint256[]",
                    "name": "ids",
                    "type": "uint256[]"
                },
                {
                    "internalType": "uint256[]",
                    "name": "amounts",
                    "type": "uint256[]"
                },
                {
                    "internalType": "bytes",
                    "name": "data",
                    "type": "bytes"
                }
            ],
            "name": "safeBatchTransferFrom",
            "outputs": [],
            "stateMutability": "nonpayable",
            "type": "function"
        },
        {
            "inputs": [
                {
                    "internalType": "address",
                    "name": "from",
                    "type": "address"
                },
                {
                    "internalType": "address",
                    "name": "to",
                    "type": "address"
                },
                {
                    "internalType": "uint256",
                    "name": "id",
                    "type": "uint256"
                },
                {
                    "internalType": "uint256",
                    "name": "amount",
                    "type": "uint256"
                },
                {
                    "internalType": "bytes",
                    "name": "data",
                    "type": "bytes"
                }
            ],
            "name": "safeTransferFrom",
            "outputs": [],
            "stateMutability": "nonpayable",
            "type": "function"
        },
        {
            "inputs": [
                {
                    "internalType": "address",
                    "name": "operator",
                    "type": "address"
                },
                {
                    "internalType": "bool",
                    "name": "approved",
                    "type": "bool"
                }
            ],
            "name": "setApprovalForAll",
            "outputs": [],
            "stateMutability": "nonpayable",
            "type": "function"
        },
        {
            "inputs": [
                {
                    "internalType": "bytes4",
                    "name": "interfaceId",
                    "type": "bytes4"
                }
            ],
            "name": "supportsInterface",
            "outputs": [
                {
                    "internalType": "bool",
                    "name": "",
                    "type": "bool"
                }
            ],
            "stateMutability": "view",
            "type": "function"
        },
        {
            "inputs": [
                {
                    "internalType": "uint256",
                    "name": "",
                    "type": "uint256"
                }
            ],
            "name": "uri",
            "outputs": [
                {
                    "internalType": "string",
                    "name": "",
                    "type": "string"
                }
            ],
            "stateMutability": "view",
            "type": "function"
        }
    ],
    "bytecode": "60806040523480156200001157600080fd5b5060405162002856380380620028568339810160408190526200003491620002c6565b6040805160208101909152600081526200004e81620000e6565b506200005c600033620000ff565b620000776000805160206200283683398151915283620000ff565b620000a37f5245999133c6d8d4571d82773bdec82e2a254d49eae8d487e9867b56643d733382620000ff565b620000de7f6b5fef62e5bc2370ac8da5f60f559eeb948e92965cc957d5211411a64d62e777600080516020620028368339815191526200010b565b50506200033b565b8051620000fb90600290602084019062000203565b5050565b620000fb82826200015f565b600082815260036020526040902060010154819060405184907fbd79b86ffe0ab8e8776151514217cd7cacd52c909f66475c3af44e129f0b00ff90600090a460009182526003602052604090912060010155565b60008281526003602090815260408083206001600160a01b038516845290915290205460ff16620000fb5760008281526003602090815260408083206001600160a01b03851684529091529020805460ff19166001179055620001bf3390565b6001600160a01b0316816001600160a01b0316837f2f8788117e7eff1d82e926ec794901d17c78024a50270940304540a733656f0d60405160405180910390a45050565b8280546200021190620002fe565b90600052602060002090601f01602090048101928262000235576000855562000280565b82601f106200025057805160ff191683800117855562000280565b8280016001018555821562000280579182015b828111156200028057825182559160200191906001019062000263565b506200028e92915062000292565b5090565b5b808211156200028e576000815560010162000293565b80516001600160a01b0381168114620002c157600080fd5b919050565b60008060408385031215620002da57600080fd5b620002e583620002a9565b9150620002f560208401620002a9565b90509250929050565b600181811c908216806200031357607f821691505b602082108114156200033557634e487b7160e01b600052602260045260246000fd5b50919050565b6124eb806200034b6000396000f3fe608060405234801561001057600080fd5b50600436106101365760003560e01c8063a217fddf116100b8578063ca8061161161007c578063ca806116146102da578063d547741f14610301578063e985e9c514610314578063f1789e7514610350578063f242432a14610363578063f3c6a1981461037657600080fd5b8063a217fddf14610260578063a22cb46514610268578063bc0ce06e1461027b578063bd678ba5146102a0578063c7b59209146102c757600080fd5b80632f2ff15d116100ff5780632f2ff15d146101dc57806336568abe146101ef5780634e1273f41461020257806367e99e8a1461022257806391d148541461024d57600080fd5b8062fdd58e1461013b57806301ffc9a7146101615780630e89341c14610184578063248a9ca3146101a45780632eb2c2d6146101c7575b600080fd5b61014e610149366004611ce9565b61039d565b6040519081526020015b60405180910390f35b61017461016f366004611e20565b610434565b6040519015158152602001610158565b610197610192366004611de4565b610445565b60405161015891906120e6565b61014e6101b2366004611de4565b60009081526003602052604090206001015490565b6101da6101d5366004611b9e565b6104d9565b005b6101da6101ea366004611dfd565b610570565b6101da6101fd366004611dfd565b61059b565b610215610210366004611d13565b610619565b60405161015891906120a5565b610235610230366004611de4565b610743565b6040516001600160a01b039091168152602001610158565b61017461025b366004611dfd565b61076d565b61014e600081565b6101da610276366004611cad565b610798565b61028e610289366004611b50565b61086f565b60405161015896959493929190612152565b61014e7f6b5fef62e5bc2370ac8da5f60f559eeb948e92965cc957d5211411a64d62e77781565b6101da6102d5366004611b50565b610936565b61014e7f5245999133c6d8d4571d82773bdec82e2a254d49eae8d487e9867b56643d733381565b6101da61030f366004611dfd565b610aba565b610174610322366004611b6b565b6001600160a01b03918216600090815260016020908152604080832093909416825291909152205460ff1690565b6101da61035e366004611e5a565b610ae0565b6101da610371366004611c48565b610dae565b61014e7ffd70517941c75212b0f9013e45c47a37d6d983c5304288c7af285f2ea40cbba781565b60006001600160a01b03831661040e5760405162461bcd60e51b815260206004820152602b60248201527f455243313135353a2062616c616e636520717565727920666f7220746865207a60448201526a65726f206164647265737360a81b60648201526084015b60405180910390fd5b506000908152602081815260408083206001600160a01b03949094168352929052205490565b600061043f82610e35565b92915050565b6060600280546104549061231b565b80601f01602080910402602001604051908101604052809291908181526020018280546104809061231b565b80156104cd5780601f106104a2576101008083540402835291602001916104cd565b820191906000526020600020905b8154815290600101906020018083116104b057829003601f168201915b50505050509050919050565b6001600160a01b0385163314806104f557506104f58533610322565b61055c5760405162461bcd60e51b815260206004820152603260248201527f455243313135353a207472616e736665722063616c6c6572206973206e6f74206044820152711bdddb995c881b9bdc88185c1c1c9bdd995960721b6064820152608401610405565b6105698585858585610e5a565b5050505050565b60008281526003602052604090206001015461058c813361102f565b6105968383611093565b505050565b6001600160a01b038116331461060b5760405162461bcd60e51b815260206004820152602f60248201527f416363657373436f6e74726f6c3a2063616e206f6e6c792072656e6f756e636560448201526e103937b632b9903337b91039b2b63360891b6064820152608401610405565b6106158282611119565b5050565b6060815183511461067e5760405162461bcd60e51b815260206004820152602960248201527f455243313135353a206163636f756e747320616e6420696473206c656e677468604482015268040dad2e6dac2e8c6d60bb1b6064820152608401610405565b6000835167ffffffffffffffff81111561069a5761069a6123e0565b6040519080825280602002602001820160405280156106c3578160200160208202803683370190505b50905060005b845181101561073b5761070e8582815181106106e7576106e76123ca565b6020026020010151858381518110610701576107016123ca565b602002602001015161039d565b828281518110610720576107206123ca565b602090810291909101015261073481612383565b90506106c9565b509392505050565b6005818154811061075357600080fd5b6000918252602090912001546001600160a01b0316905081565b60009182526003602090815260408084206001600160a01b0393909316845291905290205460ff1690565b336001600160a01b03831614156108035760405162461bcd60e51b815260206004820152602960248201527f455243313135353a2073657474696e6720617070726f76616c20737461747573604482015268103337b91039b2b63360b91b6064820152608401610405565b3360008181526001602090815260408083206001600160a01b03871680855290835292819020805460ff191686151590811790915590519081529192917f17307eab39ab6107e8899845ad3d59bd9653f200f220920489ca2b5937696c31910160405180910390a35050565b60046020526000908152604090208054819061088a9061231b565b80601f01602080910402602001604051908101604052809291908181526020018280546108b69061231b565b80156109035780601f106108d857610100808354040283529160200191610903565b820191906000526020600020905b8154815290600101906020018083116108e657829003601f168201915b50505050600183015460028401546003850154600490950154939460ff80841695610100909404169350909161ffff1686565b6109607ffd70517941c75212b0f9013e45c47a37d6d983c5304288c7af285f2ea40cbba73361076d565b61099f5760405162461bcd60e51b815260206004820152601060248201526f21b0b63632b91034b9903737ba10242960811b6044820152606401610405565b6001600160a01b0381166000908152600460208190526040822001546109ca90839061ffff1661039d565b11610a2b5760405162461bcd60e51b815260206004820152602b60248201527f416472657361207472656275696520736120636f6e74696e612063656c20707560448201526a3a34b71018903a37b5b2b760a91b6064820152608401610405565b6001600160a01b03811660009081526004602081905260409091200154610a5990829061ffff166001611180565b6001600160a01b03811660008181526004602081815260409283902042600382015590910154825193845261ffff16908301527f17017664ad03a79b44024bf9f57a6d869a39fd7043e762ad68fc1671b4ab6e9f910160405180910390a150565b600082815260036020526040902060010154610ad6813361102f565b6105968383611119565b610b0a7ffd70517941c75212b0f9013e45c47a37d6d983c5304288c7af285f2ea40cbba73361076d565b610b495760405162461bcd60e51b815260206004820152601060248201526f21b0b63632b91034b9903737ba10242960811b6044820152606401610405565b6001600160a01b0381166000908152600460208190526040909120015461ffff1615610c035760405162461bcd60e51b815260206004820152606060248201527f656d706c6f7965654e756d62657220747265627569652073612066696520646560448201527f6661756c742c206361207361206e7520736520706f617461206164617567612060648201527f706573746520756e20616c7420467265616b2064656a61206578697374656e74608482015260a401610405565b610c2d7f6b5fef62e5bc2370ac8da5f60f559eeb948e92965cc957d5211411a64d62e77782610570565b60058054600181019091557f036b6384b5eca791c62761152d0c79bb0604c104a5fb6f4eb0703f3154bb3db00180546001600160a01b0319166001600160a01b03831690811790915560009081526004602090815260409091208751610c9592890190611994565b506001600160a01b038116600090815260046020526040902060019081018054879260ff19909116908381811115610ccf57610ccf6123b4565b02179055506001600160a01b0381166000908152600460205260409020600101805485919061ff001916610100836005811115610d0e57610d0e6123b4565b02179055506001600160a01b0381166000908152600460208190526040918290206002810186905501805461ffff191661ffff8516179055517f3ae45bae526b01fc51566fbb978c794c73d8d0cb907d639c2c1d9ca62edebe2090610d7e908890889088908890889088906120f9565b60405180910390a1610da6818361ffff166001604051806020016040528060008152506112fa565b505050505050565b6001600160a01b038516331480610dca5750610dca8533610322565b610e285760405162461bcd60e51b815260206004820152602960248201527f455243313135353a2063616c6c6572206973206e6f74206f776e6572206e6f7260448201526808185c1c1c9bdd995960ba1b6064820152608401610405565b6105698585858585611404565b60006001600160e01b03198216637965db0b60e01b148061043f575061043f82611521565b8151835114610ebc5760405162461bcd60e51b815260206004820152602860248201527f455243313135353a2069647320616e6420616d6f756e7473206c656e677468206044820152670dad2e6dac2e8c6d60c31b6064820152608401610405565b6001600160a01b038416610ee25760405162461bcd60e51b8152600401610405906121ea565b3360005b8451811015610fc9576000858281518110610f0357610f036123ca565b602002602001015190506000858381518110610f2157610f216123ca565b602090810291909101810151600084815280835260408082206001600160a01b038e168352909352919091205490915081811015610f715760405162461bcd60e51b81526004016104059061222f565b6000838152602081815260408083206001600160a01b038e8116855292528083208585039055908b16825281208054849290610fae90849061229d565b9250508190555050505080610fc290612383565b9050610ee6565b50846001600160a01b0316866001600160a01b0316826001600160a01b03167f4a39dc06d4c0dbc64b70af90fd698a233a518aa5d07e595d983b8c0526c8f7fb87876040516110199291906120b8565b60405180910390a4610da6818787878787611571565b611039828261076d565b61061557611051816001600160a01b031660146116dc565b61105c8360206116dc565b60405160200161106d929190611f8d565b60408051601f198184030181529082905262461bcd60e51b8252610405916004016120e6565b61109d828261076d565b6106155760008281526003602090815260408083206001600160a01b03851684529091529020805460ff191660011790556110d53390565b6001600160a01b0316816001600160a01b0316837f2f8788117e7eff1d82e926ec794901d17c78024a50270940304540a733656f0d60405160405180910390a45050565b611123828261076d565b156106155760008281526003602090815260408083206001600160a01b0385168085529252808320805460ff1916905551339285917ff6391f5c32d9c69d2a47ea670b442974b53935d1edc7fd64eb21e047a839171b9190a45050565b6001600160a01b0383166111e25760405162461bcd60e51b815260206004820152602360248201527f455243313135353a206275726e2066726f6d20746865207a65726f206164647260448201526265737360e81b6064820152608401610405565b33611212818560006111f38761187f565b6111fc8761187f565b5050604080516020810190915260009052505050565b6000838152602081815260408083206001600160a01b03881684529091529020548281101561128f5760405162461bcd60e51b8152602060048201526024808201527f455243313135353a206275726e20616d6f756e7420657863656564732062616c604482015263616e636560e01b6064820152608401610405565b6000848152602081815260408083206001600160a01b03898116808652918452828520888703905582518981529384018890529092908616917fc3d58168c5ae7397731d063d5bbf3d657854427343f4c083240f7aacaa2d0f62910160405180910390a45050505050565b6001600160a01b03841661135a5760405162461bcd60e51b815260206004820152602160248201527f455243313135353a206d696e7420746f20746865207a65726f206164647265736044820152607360f81b6064820152608401610405565b336113748160008761136b8861187f565b6105698861187f565b6000848152602081815260408083206001600160a01b0389168452909152812080548592906113a490849061229d565b909155505060408051858152602081018590526001600160a01b0380881692600092918516917fc3d58168c5ae7397731d063d5bbf3d657854427343f4c083240f7aacaa2d0f62910160405180910390a4610569816000878787876118ca565b6001600160a01b03841661142a5760405162461bcd60e51b8152600401610405906121ea565b3361143a81878761136b8861187f565b6000848152602081815260408083206001600160a01b038a1684529091529020548381101561147b5760405162461bcd60e51b81526004016104059061222f565b6000858152602081815260408083206001600160a01b038b81168552925280832087850390559088168252812080548692906114b890849061229d565b909155505060408051868152602081018690526001600160a01b03808916928a821692918616917fc3d58168c5ae7397731d063d5bbf3d657854427343f4c083240f7aacaa2d0f62910160405180910390a46115188288888888886118ca565b50505050505050565b60006001600160e01b03198216636cdb3d1360e11b148061155257506001600160e01b031982166303a24d0760e21b145b8061043f57506301ffc9a760e01b6001600160e01b031983161461043f565b6001600160a01b0384163b15610da65760405163bc197c8160e01b81526001600160a01b0385169063bc197c81906115b59089908990889088908890600401612002565b602060405180830381600087803b1580156115cf57600080fd5b505af19250505080156115ff575060408051601f3d908101601f191682019092526115fc91810190611e3d565b60015b6116ac5761160b6123f6565b806308c379a014156116455750611620612412565b8061162b5750611647565b8060405162461bcd60e51b815260040161040591906120e6565b505b60405162461bcd60e51b815260206004820152603460248201527f455243313135353a207472616e7366657220746f206e6f6e20455243313135356044820152732932b1b2b4bb32b91034b6b83632b6b2b73a32b960611b6064820152608401610405565b6001600160e01b0319811663bc197c8160e01b146115185760405162461bcd60e51b8152600401610405906121a2565b606060006116eb8360026122b5565b6116f690600261229d565b67ffffffffffffffff81111561170e5761170e6123e0565b6040519080825280601f01601f191660200182016040528015611738576020820181803683370190505b509050600360fc1b81600081518110611753576117536123ca565b60200101906001600160f81b031916908160001a905350600f60fb1b81600181518110611782576117826123ca565b60200101906001600160f81b031916908160001a90535060006117a68460026122b5565b6117b190600161229d565b90505b6001811115611829576f181899199a1a9b1b9c1cb0b131b232b360811b85600f16601081106117e5576117e56123ca565b1a60f81b8282815181106117fb576117fb6123ca565b60200101906001600160f81b031916908160001a90535060049490941c9361182281612304565b90506117b4565b5083156118785760405162461bcd60e51b815260206004820181905260248201527f537472696e67733a20686578206c656e67746820696e73756666696369656e746044820152606401610405565b9392505050565b604080516001808252818301909252606091600091906020808301908036833701905050905082816000815181106118b9576118b96123ca565b602090810291909101015292915050565b6001600160a01b0384163b15610da65760405163f23a6e6160e01b81526001600160a01b0385169063f23a6e619061190e9089908990889088908890600401612060565b602060405180830381600087803b15801561192857600080fd5b505af1925050508015611958575060408051601f3d908101601f1916820190925261195591810190611e3d565b60015b6119645761160b6123f6565b6001600160e01b0319811663f23a6e6160e01b146115185760405162461bcd60e51b8152600401610405906121a2565b8280546119a09061231b565b90600052602060002090601f0160209004810192826119c25760008555611a08565b82601f106119db57805160ff1916838001178555611a08565b82800160010185558215611a08579182015b82811115611a085782518255916020019190600101906119ed565b50611a14929150611a18565b5090565b5b80821115611a145760008155600101611a19565b600067ffffffffffffffff831115611a4757611a476123e0565b604051611a5e601f8501601f191660200182612356565b809150838152848484011115611a7357600080fd5b83836020830137600060208583010152509392505050565b80356001600160a01b0381168114611aa257600080fd5b919050565b600082601f830112611ab857600080fd5b81356020611ac582612279565b604051611ad28282612356565b8381528281019150858301600585901b87018401881015611af257600080fd5b60005b85811015611b1157813584529284019290840190600101611af5565b5090979650505050505050565b600082601f830112611b2f57600080fd5b61187883833560208501611a2d565b803561ffff81168114611aa257600080fd5b600060208284031215611b6257600080fd5b61187882611a8b565b60008060408385031215611b7e57600080fd5b611b8783611a8b565b9150611b9560208401611a8b565b90509250929050565b600080600080600060a08688031215611bb657600080fd5b611bbf86611a8b565b9450611bcd60208701611a8b565b9350604086013567ffffffffffffffff80821115611bea57600080fd5b611bf689838a01611aa7565b94506060880135915080821115611c0c57600080fd5b611c1889838a01611aa7565b93506080880135915080821115611c2e57600080fd5b50611c3b88828901611b1e565b9150509295509295909350565b600080600080600060a08688031215611c6057600080fd5b611c6986611a8b565b9450611c7760208701611a8b565b93506040860135925060608601359150608086013567ffffffffffffffff811115611ca157600080fd5b611c3b88828901611b1e565b60008060408385031215611cc057600080fd5b611cc983611a8b565b915060208301358015158114611cde57600080fd5b809150509250929050565b60008060408385031215611cfc57600080fd5b611d0583611a8b565b946020939093013593505050565b60008060408385031215611d2657600080fd5b823567ffffffffffffffff80821115611d3e57600080fd5b818501915085601f830112611d5257600080fd5b81356020611d5f82612279565b604051611d6c8282612356565b8381528281019150858301600585901b870184018b1015611d8c57600080fd5b600096505b84871015611db657611da281611a8b565b835260019690960195918301918301611d91565b5096505086013592505080821115611dcd57600080fd5b50611dda85828601611aa7565b9150509250929050565b600060208284031215611df657600080fd5b5035919050565b60008060408385031215611e1057600080fd5b82359150611b9560208401611a8b565b600060208284031215611e3257600080fd5b81356118788161249c565b600060208284031215611e4f57600080fd5b81516118788161249c565b60008060008060008060c08789031215611e7357600080fd5b863567ffffffffffffffff811115611e8a57600080fd5b8701601f81018913611e9b57600080fd5b611eaa89823560208401611a2d565b965050602087013560028110611ebf57600080fd5b9450604087013560068110611ed357600080fd5b935060608701359250611ee860808801611b3e565b9150611ef660a08801611a8b565b90509295509295509295565b600081518084526020808501945080840160005b83811015611f3257815187529582019590820190600101611f16565b509495945050505050565b60008151808452611f558160208601602086016122d4565b601f01601f19169290920160200192915050565b60028110611f7957611f796123b4565b9052565b60068110611f7957611f796123b4565b7f416363657373436f6e74726f6c3a206163636f756e7420000000000000000000815260008351611fc58160178501602088016122d4565b7001034b99036b4b9b9b4b733903937b6329607d1b6017918401918201528351611ff68160288401602088016122d4565b01602801949350505050565b6001600160a01b0386811682528516602082015260a06040820181905260009061202e90830186611f02565b82810360608401526120408186611f02565b905082810360808401526120548185611f3d565b98975050505050505050565b6001600160a01b03868116825285166020820152604081018490526060810183905260a06080820181905260009061209a90830184611f3d565b979650505050505050565b6020815260006118786020830184611f02565b6040815260006120cb6040830185611f02565b82810360208401526120dd8185611f02565b95945050505050565b6020815260006118786020830184611f3d565b60c08152600061210c60c0830189611f3d565b905061211b6020830188611f69565b6121286040830187611f7d565b606082019490945261ffff9290921660808301526001600160a01b031660a0909101529392505050565b60c08152600061216560c0830189611f3d565b90506121746020830188611f69565b6121816040830187611f7d565b84606083015283608083015261ffff831660a0830152979650505050505050565b60208082526028908201527f455243313135353a204552433131353552656365697665722072656a656374656040820152676420746f6b656e7360c01b606082015260800190565b60208082526025908201527f455243313135353a207472616e7366657220746f20746865207a65726f206164604082015264647265737360d81b606082015260800190565b6020808252602a908201527f455243313135353a20696e73756666696369656e742062616c616e636520666f60408201526939103a3930b739b332b960b11b606082015260800190565b600067ffffffffffffffff821115612293576122936123e0565b5060051b60200190565b600082198211156122b0576122b061239e565b500190565b60008160001904831182151516156122cf576122cf61239e565b500290565b60005b838110156122ef5781810151838201526020016122d7565b838111156122fe576000848401525b50505050565b6000816123135761231361239e565b506000190190565b600181811c9082168061232f57607f821691505b6020821081141561235057634e487b7160e01b600052602260045260246000fd5b50919050565b601f8201601f1916810167ffffffffffffffff8111828210171561237c5761237c6123e0565b6040525050565b60006000198214156123975761239761239e565b5060010190565b634e487b7160e01b600052601160045260246000fd5b634e487b7160e01b600052602160045260246000fd5b634e487b7160e01b600052603260045260246000fd5b634e487b7160e01b600052604160045260246000fd5b600060033d111561240f5760046000803e5060005160e01c5b90565b600060443d10156124205790565b6040516003193d81016004833e81513d67ffffffffffffffff816024840111818411171561245057505050505090565b82850191508151818111156124685750505050505090565b843d87010160208285010111156124825750505050505090565b61249160208286010187612356565b509095945050505050565b6001600160e01b0319811681146124b257600080fd5b5056fea2646970667358221220ae72a0a3e63dd284762957ad98e4ad6fc01237f7fc39d01414f1614e8ca592a064736f6c63430008060033fd70517941c75212b0f9013e45c47a37d6d983c5304288c7af285f2ea40cbba7",
    "sourcePath": "/home/eduardioo/Documents/Git/FreaksCatalog-Blockchain/contracts/Freaks.sol",
    "compiler": {
        "name": "solc",
        "version": "0.8.6+commit.11564f7e"
    },
    "functionHashes": {
        "DEFAULT_ADMIN_ROLE()": "a217fddf",
        "FINANCIAL_ROLE()": "ca806116",
        "FREAK_ROLE()": "bd678ba5",
        "HR_ROLE()": "f3c6a198",
        "addFreak(string,uint8,uint8,uint256,uint16,address)": "f1789e75",
        "balanceOf(address,uint256)": "00fdd58e",
        "balanceOfBatch(address[],uint256[])": "4e1273f4",
        "freakStruct(address)": "bc0ce06e",
        "freaks(uint256)": "67e99e8a",
        "getRoleAdmin(bytes32)": "248a9ca3",
        "grantRole(bytes32,address)": "2f2ff15d",
        "hasRole(bytes32,address)": "91d14854",
        "isApprovedForAll(address,address)": "e985e9c5",
        "removeFreak(address)": "c7b59209",
        "renounceRole(bytes32,address)": "36568abe",
        "revokeRole(bytes32,address)": "d547741f",
        "safeBatchTransferFrom(address,address,uint256[],uint256[],bytes)": "2eb2c2d6",
        "safeTransferFrom(address,address,uint256,uint256,bytes)": "f242432a",
        "setApprovalForAll(address,bool)": "a22cb465",
        "supportsInterface(bytes4)": "01ffc9a7",
        "uri(uint256)": "0e89341c"
    },
    "gasEstimates": {
        "creation": {
            "codeDepositCost": "1890200",
            "executionCost": "infinite",
            "totalCost": "infinite"
        },
        "external": {
            "DEFAULT_ADMIN_ROLE()": "207",
            "FINANCIAL_ROLE()": "206",
            "FREAK_ROLE()": "273",
            "HR_ROLE()": "316",
            "addFreak(string,uint8,uint8,uint256,uint16,address)": "infinite",
            "balanceOf(address,uint256)": "2695",
            "balanceOfBatch(address[],uint256[])": "infinite",
            "freakStruct(address)": "infinite",
            "freaks(uint256)": "4703",
            "getRoleAdmin(bytes32)": "2523",
            "grantRole(bytes32,address)": "infinite",
            "hasRole(bytes32,address)": "2776",
            "isApprovedForAll(address,address)": "infinite",
            "removeFreak(address)": "infinite",
            "renounceRole(bytes32,address)": "29046",
            "revokeRole(bytes32,address)": "infinite",
            "safeBatchTransferFrom(address,address,uint256[],uint256[],bytes)": "infinite",
            "safeTransferFrom(address,address,uint256,uint256,bytes)": "infinite",
            "setApprovalForAll(address,bool)": "26673",
            "supportsInterface(bytes4)": "infinite",
            "uri(uint256)": "infinite"
        }
    }
}